:020000022000DC
:1060000000000120756302005D6302005F6302000F
:106010006163020063630200656302000000000028
:1060200000000000000000000000000067630200A4
:1060300069630200000000006B6302006D630200F0
:10604000398302006F63020019850200D5850200C2
:106050009D8602006F630200C98302003D88020032
:106060006F6302006F6302006F6302006F630200E0
:106070006F6302006F6302006F6302006F630200D0
:106080006F630200216A02006F6302006F63020007
:106090006F6302006F630200C9D802006F630200E1
:1060A0006F6302006F630200018D02006F630200E4
:1060B000B58502006F6302000000000000000000D0
:1060C0006F630200C58502006F6302006F63020008
:1060D0006F6302006F6302006F6302000000000044
:1060E00000000000000000000000000000000000B0
:1060F00000000000000000000000000000000000A0
:10610000000000000000000000000000000000008F
:10611000000000000000000000000000000000007F
:10612000000000000000000000000000000000006F
:10613000000000000000000000000000000000005F
:10614000000000000000000000000000000000004F
:10615000000000000000000000000000000000003F
:10616000000000000000000000000000000000002F
:10617000000000000000000000000000000000001F
:10618000000000000000000000000000000000000F
:1061900000000000000000000000000000000000FF
:1061A00000000000000000000000000000000000EF
:1061B00000000000000000000000000000000000DF
:1061C00000000000000000000000000000000000CF
:1061D00000000000000000000000000000000000BF
:1061E00000000000000000000000000000000000AF
:1061F000000000000000000000000000000000009F
:10620000354936480A1A02D0072291438D4634494F
:1062100034480A1A06D00722914381F309880222E2
:1062200082F3148830483149314A00F044F831484B
:106230003149324A00F03FF831483249324A00F0E1
:106240003AF832483249334A00F035F83248334997
:10625000334A00F030F833483349344A00F02BF821
:1062600033483449344A00F026F83448344900228F
:1062700000F02CF833483449002200F027F8334866
:106280003349091A082902DB002202604160314AC1
:1062900090471F481F49884205D00268043003B464
:1062A000904703BCF7E700208646EC46002000211B
:1062B000294A9047FEE7884207D0521A05D0037852
:1062C00001300B700131013AF9D17047884202D098
:1062D00002700130FAE770470000012000E0002062
:1062E000000001200000012020E10200C42B00205A
:1062F000F42B0020D0630200D063020036DF0200DE
:1063000020E10200C42B0020C42B0020E0DF0200AB
:10631000E0DF0200E0DF0200E0DF0200E0DF020079
:10632000E0DF0200E0DF0200E0DF020020E1020027
:1063300050E10200F42B0020F42B0020F42B00206D
:106340005839002058390020583900205839002089
:10635000585900209D6302002D8E0200FEE7FEE7E3
:10636000FEE7FEE7FEE7FEE7FEE7FEE7FEE7FEE705
:1063700000F002B8FFF7FCBF0F484FF00701884359
:1063800085460E4880470E48016841F4700101605F
:10639000BFF34F8FBFF36F8FFFF732BF09480A4932
:1063A0000A4A884207D0521A05D0037801300B7090
:1063B0000131013AF9D1704700000120C991020072
:1063C00088ED00E0CCDF0200B02B0020C42B0020C1
:1063D0001FB50021039001AA44F20100CDE901118B
:1063E00000F004F805B05DF804FB000072B6094B3C
:1063F0001B68DB0700D500BEBFF34F8F0649074B74
:10640000CA6802F4E0621343CB60BFF34F8F00BF52
:10641000FDE700BFF0ED00E000ED00E00400FA054C
:10642000D0E90223D1E90201994208BF90422CBF72
:10643000012000207047000008B50B4800F0D9FA91
:106440000A4B0B49D3E900231218D1E9000143F1AB
:1064500000038B4208BF824203D212F1807243F1E3
:1064600000031046194608BDC42B0020F82B00205D
:10647000702C002037B505460C460A4801A901F0EA
:1064800086FA60B10570446001A9064801F0A9FAD6
:1064900018B1054800F0B2FA002003B030BD042066
:1064A000FBE700BF5C2C0020C42B002038B5184B44
:1064B0001B78044613B90025284638BD0028FAD0B9
:1064C000037F03F0FF05002BF5D0FFF7B5FFD4E9FC
:1064D0000223994208BF904214D3236903B923775A
:1064E000D4E90530984721690029E4D0237F03F0DF
:1064F000FF05002BDFD0D4E90223521843F100033B
:10650000C4E902230348214601F016FED4E700BF88
:10651000002C0020E4DF020013B5114B114918686C
:10652000019008231048582201F0FCF9044698B95C
:106530000E4A0F4801A900F065F9044660B90C48FD
:10654000012100F039FA01230A4A0948194600F0EE
:106550009BF9094B01221A70204602B010BD00BF02
:10656000E0DF0200042C00205C2C0020DD6502002E
:10657000C42B0020FFFF7F00002C00203AB10368ED
:106580005A614A1E5142514119610020704707204B
:10659000704738B5037F04460D4683B98261FFF723
:1065A0004BFF2369401941F10001C4E9020103B125
:1065B000256121460020BDE83840FFF75BBF002081
:1065C00038BD0023014603770120FFF753BF0000C9
:1065D000014800F00EBA00BFC42B00202DE9F04F97
:1065E00085B0804600F0F0F940B15A4AD2E9003156
:1065F00013F1807341F10001C2E9003100214046EE
:1066000000F0F1F938B1544E336823B13068FFF728
:106610004DFF002333600121404600F0E4F920B132
:10662000FFF70AFF4D4BC3E900014D484A4F4D4E5D
:10663000DFF8389103A901F0E4F9002845D1DFF82B
:106640002491454EDFF828A1484601F08BFD3368C0
:10665000002875D07BB13368D0E90201D3E9022369
:10666000994208BF90422DD233681B7F1BB131681D
:10667000484601F061FD484601F06EFDD0E902B3E5
:1066800007460193FFF7D8FE019BBBEB000463EBC9
:106690000105012C75F1000345DBB4F5350F40D33E
:1066A000FFF796FF304A02444FF49603002150460C
:1066B00000F00AF900283ED1336813B9404600F0D3
:1066C000DBF8376005B0BDE8F08F0378012B1DD0F3
:1066D000022B09D14FF0000A304601F03DFD0028A1
:1066E00034D080F81CA0F7E73BB941680B7F23B991
:1066F00001230B77304601F01FFD03A9184801F074
:10670000ABF903A9164801F07CF996E741683B68AC
:10671000994202D100233B60EFE7304601F025FDAE
:10672000EBE7BA68C0E70021504600F052F938465E
:10673000FFF7BCFE01E00D28F9D00023336083E7AA
:10674000002BBFD1404600F09BF8BBE7012389F83E
:106750000030D2E7F82B0020782C0020702C00208D
:106760005C2C0020E4DF0200FFFFB400002C0020BE
:10677000C42B002070B5EFF3108672B60C4A9468F3
:1067800001239CB993600B4B0B4DD3F8801029402B
:106790001160C3F88050D3F8841051604FF0FF327D
:1067A000C3F88420047006B962B670BD0370FAE7BE
:1067B0007C2C002000E100E0FC06FFBD084B9A683D
:1067C00010B55AB150B9EFF3108172B6054A1C6882
:1067D00014605C685460986001B962B610BD00BF77
:1067E0007C2C002000E100E0435882B03BB1002344
:1067F000435043580193019B012002B07047184653
:10680000FBE7000070B5184C437944F82320174C7F
:1068100004EBC3031B792BBB03680A88C3F8082564
:1068200090F904508B7802795B01002DDBB214DB08
:106830000F494E1986F8003301236D0902F01F023B
:1068400003FA02F241F82520437904EBC302012147
:1068500044F833001171002070BD064902F00F02A8
:106860008B54F1E70820F7E7902C0020882C0020BB
:1068700000E100E014ED00E0036801221A607047B7
:10688000036801225A60704773B501F15005AD00ED
:106890000068ADB24FF480348C400026C0F8084345
:1068A000C0F84843465101F5A8714559019522F0B9
:1068B0007F42019D40F82120C0F844430BB1C0F84D
:1068C000044302B070BD00002DE9F74F0D4622F0E1
:1068D0007F4402684FF4803705F150068F408046B0
:1068E000B60002EB8500C2F84873B6B2C2F808736E
:1068F000D2F8041599464FF0000BD0F84035C0F897
:10690000401542F806B05B1A9259009223F07F437B
:10691000012B009A4FEA850A0CD1264B4FF4806078
:1069200043F001039847D8F8003043F806B09B596C
:106930000193019BD8F80010D1F80465C1F84473A5
:10694000A31B23F07F43012B1CD11A4B05F5A8751F
:10695000013443F0010341F825404FF4806098472B
:10696000D8F80030D3F804359E4209D1D8F8003069
:106970000020C3F84473C3F8047303B0BDE8F08F7C
:106980000D20FAE78A44C9F1FF13CAF84045D1F84F
:106990000405221A013A22F07F4203F57F43934215
:1069A000EED3002AE2D10134CAF84045D1F80435CB
:1069B0009842DAE7F0DF020003680222C3F84423BA
:1069C00009B1C3F80423704700684FF48271FFF7E0
:1069D0000BBF4FF4803303FA01F10368C3F8481387
:1069E000C3F80813704750318900006889B2FFF777
:1069F000FBBE0368D3F804057047000090F904302B
:106A0000002B09DB5A09012103F01F0301FA03F3EC
:106A10004032024941F82230704700BF00E100E0F7
:106A2000024B034A1B681068184700BF902C0020D7
:106A3000882C002070B5064D0646002455F8043B0E
:106A40000BB1304698470134042CF7D170BD00BF1C
:106A5000A02C0020033080B240F2FE33984230B5C3
:106A60001FD8134B1A783AB91C895D892C44044409
:106A7000A4B2B4F5806F0AD91A7DAAB99A8BDC8BBF
:106A80002244024492B2B2F5806F0DD801220A80EE
:106A90001446142202FB04335A8910445881002002
:106AA00030BD48F20860FBE748F20660F8E700BF37
:106AB000D42C00200B4A0C4B5188142000FB0131D0
:106AC000CB6833B90420496810700122074801F0EF
:106AD000BCB807490523137002238B800122096883
:106AE0000023F3E7B82C0020D42C0020B02B00208A
:106AF0009C2D002007B5002305490093054A09682D
:106B00000548082301F073F803B05DF804FB00BFEB
:106B10009C2D002004E00200B02B002007B50023CC
:106B200001460093034A0448082301F060F803B0CB
:106B30005DF804FBFCDF0200B02B002013B500233E
:106B40000C4600930146084A0848042301F04FF818
:106B500038B90749142303FB04140123237402B03A
:106B600010BD48F20D60FAE7F8DF0200B02B0020FC
:106B7000D42C002037B50A480A4B42689C88196813
:106B800053880325033305709BB2002000909B00BF
:106B900001EB8401044801F02AF803B030BD00BFC6
:106BA000B82C00209C2D0020B02B002010B50146F1
:106BB000044800F0ECFE1C220446002107F058F9BE
:106BC000204610BD882D002068B10268084B9A420B
:106BD00009D14068074B984207D00133984214BF4F
:106BE000032001207047032070470020704700BF3A
:106BF000DEC0ADDEFE011EF14388033300EB8303EC
:106C000099420BD382884FF6FF739A4208D00388CB
:106C100033B18068431C5842584170470220704786
:106C2000012070472DE9F0410D460223154F2B80BE
:106C3000164600F5805100F108044FF001088C421F
:106C40000ED2236801330BD02046FFF7D5FF48B1A1
:106C50000EB186F80080022809D14FF480632B80A2
:106C6000BDE8F081A3683A68934200D93B602B8865
:106C70006288033313442B806388033304EB83045B
:106C8000DDE700BFCC2C002038B5144B14220D4694
:106C900002FB00302B68446804F58051A3B15C8886
:106CA000033403EB84048C4215D22368013312D0E1
:106CB0002046FFF7A1FF012808D002280BD00028AA
:106CC000F1D12C60012038BD0834ECE76388033330
:106CD00004EB8304E7E70020F5E700BFD42C002095
:106CE000426873B504460D466AB3244BD9688A429C
:106CF00029D31B699A4226D812F0030323D12049D5
:106D00000089098988421ED12068916888421AD179
:106D10001C494868824203D900F5805082420DD355
:106D200089698A420CD901F580518A4208D2012230
:106D30002A80B3FA83F0400902B070BD1A46F7E723
:106D400048F20963F5E700232B801E460196288848
:106D500001A9FFF799FF30B92B8801339BB2012BB2
:106D60002B80F3D9E8E7019B226899689142EED124
:106D70006360034B1B892381DEE700BFB02B00203B
:106D8000B82C0020D42C00202DE9F8431C461D4BC4
:106D90001B7806460F46154673B382B37CB3DFF803
:106DA0006C804FF01409A388012B02D948F20960C6
:106DB00020E009FB03F318F803302BB9A088214623
:106DC000FFF762FF20B92060A3880133A380EAE7C0
:106DD00023681EB1998832889142EFD11FB119887A
:106DE0003A889142EAD19A68C5E90023064B1B898B
:106DF0002B810020BDE8F88348F20160FAE748F2F1
:106E00000460F7E7B02C0020B82C0020D42C002020
:106E100008B5074B5888191DFFF736FF18B1BDE8B4
:106E20000840FFF7A7BEBDE80840FFF743BE00BF1C
:106E3000B82C00202DE9F04FA44FDFF8B49289B0B0
:106E40000646B8463B6823B9A148494600F0D9FD3B
:106E50003860D8F8005029784B1E052B07D8DFE89A
:106E600013F022007C007C000E010E01660148F246
:106E70000E641422002103A806F0FAFF41F61D5308
:106E80009C4208BF0024D8F8003004941A78013AD4
:106E9000052A00F2F881DFE812F0E401E8010802B7
:106EA000180224022E022EB18A4B00225A604FF49F
:106EB0000644DEE72B79032B1DD8DFE803F015022B
:106EC0002B3685490B78022B08461AD00B7D022BF6
:106ED0004FF0010317D114225343C2180020C854A5
:106EE0005068FFF71BFE03E001232B71FFF702FE42
:106EF000002800F0BE80774B00225A6048F20D64F3
:106F0000B7E70023E7E7734A13700023536041F6A5
:106F10001D54AEE771497248002302222B718A800A
:106F20000968012200F091FEE2E76C4C00262E7108
:106F30002068694DFFF7F2FD6A4BD4F800C05A880B
:106F400014235343EA18EE5451682160A188C2F813
:106F500004C011810222A280CAE7B5F814A0AA7D5C
:106F6000DFF874B1AEB1022AEB8806D9142101FB17
:106F70000AB1DA1C088902440A81142202FB0ABA07
:106F8000C3F57F43BAF80A20FD331344AAF80A3048
:106F90008DE7142303FB0AB318895C6804EB8004B3
:106FA000062A69D8DFE802F0274E36441D5A04004D
:106FB00041F61D54AA7DEB88022A06D9142101FB53
:106FC0000AB1DA1C088902440A81142202FB0ABAB7
:106FD000C3F57F43BAF80A20FD331344AAF80A30F8
:106FE00047E74148414900234360AB690360FFF72D
:106FF00077FE00285BD00223AB75002300930423A7
:10700000EA182146364800F0F2FD002831D048F257
:107010000D64CFE72B69002B14BF03230123AB754D
:107020000023009305F10C02042304F10801E9E7B1
:107030000123AB750022EB8800922A699B0004F1C2
:107040000C01DFE703290CBF05230623AB750023E2
:107050000093042305F10802E118D3E70623AB757A
:10706000224B1988204B5868FFF768FD044600281A
:10707000A0D109B0BDE8F08F48F20E649AE7002E67
:107080007FF415AF2B79012B34D0022B3FF43FAFA7
:10709000002B7FF4ECAE02232B710DF10A01EB689B
:1070A000039303A8CDE90466FFF71AFE10B948F26E
:1070B0000964DEE60498BDF80A108388EB80038833
:1070C0002B81FFF73BFD044627E000BFD02C0020BA
:1070D000882D0020B02C0020D42C00209C2D0020D6
:1070E000B02B0020B82C0020942C0020A82D0020CC
:1070F000C82C0020814B03AA3146A81DFFF744FE8F
:107100007E4B044668B999880498FFF717FD04463A
:1071100048F209639C423FF4FAAE002C7FF4A9AE1A
:10712000A7E708223146184606F0A2FEF0E7002E37
:107130007FF4BDAE724B1A7BB2B11E731A78013A5E
:10714000062A3FF694AE01A151F822F0F771020031
:107150001D7202003B720200417202006F6E02005B
:1071600047720200597202001A78072AE6D801A174
:1071700051F822F0957102003D7102003D7102004C
:10718000BB710200CF710200F3710200F3710200C3
:10719000B77102001A895B4901321A8100225A80B4
:1071A0001A730A78B2FA82F252099A720A7DB2FA16
:1071B00082F25209DA72012207E0534958688A883C
:1071C0004088033202448A8002221A70B6E74D4C8E
:1071D0005A884D49142505FB0242086854685060DE
:1071E0008888108102200C6088800021117406229A
:1071F000EBE70722E9E79A7A32B9DA7A8AB900220C
:107200001A705A805A6082E63E4900229A72CA6811
:10721000002AF2D1097C0029EFD05A80FFF7F8FD4F
:1072200051E70022DA72374A116A0029E7D192F851
:107230002420002AE3D00122EFE7FFF79BFC42E77E
:10724000FFF738FC3FE72F4A5B88142101FB03233B
:107250005868FFF763FC36E700225A60FFF74AFCE4
:1072600031E700238DF80C300DE001228DF80C2061
:107270001A89ADF818209A88DB680593ADF81A20B2
:1072800000238DF81C3003A8FFF7D4FB00264946E5
:107290001E48C8F8006000F0DFFB1D48012100F027
:1072A00089FC00287FF4CEADE3E602228DF80C20A5
:1072B0001A89ADF818209A88ADF81A20DA689B7DF3
:1072C00005929A1F53425341DBE703228DF80C20AD
:1072D000DA88ADF818201A89DB68ADF81A20059312
:1072E000D1E704228DF80C20DB88ADF8183000239C
:1072F000ADF81A30F3E70523B4E700BFAC2D00204A
:10730000B82C0020D42C00209C2D0020882D00209B
:10731000982D00204068FFF78DBD000008B5054896
:10732000012100F02FFC18B9BDE80840FFF782BD2D
:1073300008BD00BF982D00202DE9F3419846374B3A
:107340001B7806460D46002B5CD000295DD00988CD
:107350004FF6FF7399425BD06B88002B58D06B6857
:107360009B0758D14AB92F890DF102013846FFF722
:1073700071FB30B102B0BDE8F08113885788ADF8D9
:10738000023001A8FFF712FC044660B9BDF80230D4
:10739000234A142101FB032358890338C01B588159
:1073A00048F20760E6E780F8008000238375BDF8A7
:1073B000023083826B68036101211A4800F0EEFB02
:1073C0002B882381B8F1030F6B88A38004BF0423AB
:1073D000A3754FF0000508BF3368E06008BFA361E4
:1073E0001148E780658101A900F0FBFA36B1E36836
:1073F00033600E4B75601B89B5723381FFF78EFFCA
:107400000020B7E748F20160B4E748F20460B1E752
:1074100048F20360AEE748F20260ABE7B02C002010
:10742000D42C0020CC2C0020882D0020B82C00204B
:1074300008B5034607480268042A08D00168064ACE
:1074400042F82130012100F0A9FB002008BD48F2DC
:107450000B60FBE7A42D0020A02C00202DE9F04FAD
:1074600089B01422002103A806F002FD794A13789E
:1074700003F0FF01009190463BB103A8FFF7DAFA51
:107480000027384609B0BDE8F08F101D00F09EFBC4
:107490000028F5D140F6F8734FF080521B685C1C51
:1074A00008BF6D4B6D4C08BF1B6811695269581CB1
:1074B00008BF02FB01F323616949A3F54053002291
:1074C0002046E36000F085FB019407460028D8D1F0
:1074D00064496548DFF8A4B11C238C2200F022FA2D
:1074E000BA463D464FF003093C46019BDE685644D0
:1074F0003046FFF769FB012862D0032817D0002827
:107500003DD15A494FF0140C0CFB04FC01EB0C026A
:1075100001F80C0056600CF110020CF1080C0A4442
:1075200030466144FFF77EFB45F0020545E03268D6
:10753000531C02D04E4B9A4234D1321D06F5805175
:10754000106801302ED104329142F9D1DBF80020CD
:107550003AB902220123CBF80060ABF80420009373
:107560000BE014226243414B022099189854414A7F
:107570004E60548001340881A4B245F001050AF53B
:10758000805ABAF5405FB0D1B9F1010F98BF00251C
:10759000EDB2022D03D0062D31D0002D39D148F2A5
:1075A0000A676EE7314914226243881809F1FF39EE
:1075B0004660032088541FFA89F90134A4B2DEE73B
:1075C000009B6BB1294B14226243991802209854F6
:1075D000DBF800204A60274A088154800134A4B2B5
:1075E00000222549CBF800603046FFF71BFBBBF8B3
:1075F0000420022A0CBF042208221543BFE70123FE
:1076000088F8003003A80023C8F80430FFF712FA06
:1076100037E702A8FFF7CAFAC8B10123013D03709A
:107620000A2D09D8DFE805F006080608070807084C
:107630000F110F000023037102A90B4800F0D1F9CC
:10764000FFF76CFE1DE70323F5E70223F3E748F29B
:10765000076716E7B02C002014100010B02B002094
:1076600018E00200FC2C0020882D0020D42C0020E3
:10767000DEC0ADDEB82C0020A02D00209C2D002007
:1076800073B50D460446C8B1C1B10DF10601FFF74F
:1076900027FBB0B10C4BBDF806006668142202FB54
:1076A000003001210C3000F079FA63682E600C3351
:1076B0006B600123A372002002B070BD48F2046029
:1076C000FAE748F20960F7E7D42C002013B5044626
:1076D000A8B10DF10601FFF703FB98B10C4ABDF804
:1076E0000630142101FB0323DA6872B1A27A62B179
:1076F000DA680020013ADA60A07202B010BD48F2E8
:107700000460FAE748F20960F7E748F20560F4E739
:10771000D42C002002230022FFF70EBE18B1032351
:107720000022FFF709BE48F204607047114B1B7836
:1077300013B50446ABB14FF6FF73984214D001A8BD
:10774000FFF734FA98B10523037001230371C48055
:1077500001A9094800F045F9FFF7E0FD002002B05B
:1077600010BD48F20160FAE748F20360F7E748F21B
:107770000760F4E7B02C0020882D00200F4B1B7809
:1077800007B5A3B101A8FFF711FA98B1062303705A
:1077900001A90B4800F025F90A4B1A780AB1012219
:1077A0001A73FFF7BBFD002003B05DF804FB48F23D
:1077B0000160F9E748F20760F6E700BFB02C00204F
:1077C000882D0020B82C002007B5ADF80600ADF8D4
:1077D00004100DF1060001A9FFF7D6FA03B05DF819
:1077E00004FB07B51346ADF806000A4600200DF16C
:1077F0000601FFF7C9FA03B05DF804FB07B51346AD
:10780000ADF806000A460DF106000021FFF7BCFAAC
:1078100003B05DF804FB20B119B103680B600020D0
:10782000704748F2046070472DE9F84F3B4B1B78D6
:107830000446002B6CD000286DD0DFF8E4A01222A3
:10784000002106F015FB032323804FF0000BD046E8
:1078500014274FF00109DAF80410BAF80A50BAF800
:1078600008600846FFF7B0F9032808BF238862883C
:1078700004BF03F1FF33238007FB0B832E44DB6837
:107880001344638023891D4463892581B6B2334440
:107890006381C6F58066A389B6B2B34201F10805DB
:1078A00038BFA68101F58051A94229D92B6801333F
:1078B00026D02846FFF7A0F901280AD0022815D0C3
:1078C0000028F1D1A3880133A3800AE04FF0010B17
:1078D000C1E7E3880133E380E3896A880333134413
:1078E000E3816B88033305EB8305DDE7E38884F8E8
:1078F00010900133E380E389491B03EBA101E1818F
:107900000AF1140ABBF1000FE0D00020BDE8F88FA7
:1079100048F20160FAE748F20460F7E7B02C002073
:10792000D42C002010B561B1B2FBF3F403FB142496
:10793000A4B244B9C0E9001484608281C3812046A6
:1079400010BD0E20FCE70920FAE782B050E8022FB4
:10795000C188B2EB324F4FF0000317BF92B241EA39
:10796000014142EA014104E04268B2EB324F08BFF4
:10797000012340E80212002AE8D18DF807309DF873
:107980000730002B0CBF1120002002B0704737B524
:1079900050E8013F9DB2C48925448489A54228BF8F
:1079A0002D1B0489A54202BFBFF32F8F002207E0E1
:1079B000C5EA030540E80154002CE9D14FF001026B
:1079C0008DF803200193019B9DF803200B6002F0CA
:1079D000FF0322B10B880068184403B030BD18467D
:1079E000FBE70A884B889A4209D150E8012FC2EA86
:1079F000024240E80123002BF7D10120704700200C
:107A0000704737B550E8023F1FFAA3F5C488A54276
:107A100002BFBFF32F8F00220DE0C4892544848963
:107A2000A54228BF2D1BC3EA054540E80254002C9F
:107A3000E8D14FF001028DF803200193019B9DF8DE
:107A400003200B6002F0FF0322B14B88006818444A
:107A500003B030BD1846FBE70A884B889A4209D12B
:107A600050E8022FC2EA224240E80223002BF7D15D
:107A7000012070470020704701F01F024B090121CF
:107A8000914000EB830000F065B84B0910B501F0A0
:107A90001F040121A14000EB830000F04FF8E040FB
:107AA00000F0010010BD01F01F0301229A404B09B4
:107AB00000EB8300D14300F059B84B0901F01F01DE
:107AC00050F82300C84000F0010070472DE9F0474E
:107AD0004F1E7F0980460E460137002558F8254085
:107AE00008EB8509E44394FAA4F4B4FA84F44FEA69
:107AF000451A202C06D10135AF42EFD83446204636
:107B0000BDE8F0875444A642F5D921464046FFF728
:107B1000BCFF0028F3D0D9F80040E44394FAA4F461
:107B2000B4FA84F4E5E710B5034653E8000F0A46BB
:107B300043E8002494F0000FF7D110BD10B50346C0
:107B400053E8000F40EA010243E8002494F0000FDC
:107B5000F6D110BD10B5034653E8002F42EA0100EC
:107B600043E8000494F0000FF6D110BD10B50346B1
:107B700053E8002F02EA010043E8000494F0000FEC
:107B8000F6D110BD10B5034653E8000F00EB01021B
:107B900043E8002494F0000FF6D110BD10B5034661
:107BA00053E8002F02EB010043E8000494F0000FBB
:107BB000F6D110BD10B5034653E8002FA2EB01002B
:107BC00043E8000494F0000FF6D110BD0121FFF747
:107BD000B5BF0B4610B4114628B123B103605DF860
:107BE000044B1B6818470E205DF8044B70472DE9C5
:107BF000F04108B302B3D0F800E0BEF1000F1ED090
:107C0000FBB14568D5F80480B3FBF8F508FB1535E2
:107C1000BDB942EA010C1CF0030F14D1C568A9429A
:107C200011D34D1EEC180569AC420CD8DEF80C409F
:107C3000A446BDE8F04160470E20BDE8F081082071
:107C4000FBE70920F9E71020F7E7F0B5D8B1D0F845
:107C500000C0BCF1000F18D0CAB14768D7F800E0E7
:107C60000EF1FF370F4214D1C768B94211D304692E
:107C70004D1E0EFB0255A5420BD8DCF81040A44661
:107C8000BDE8F04060470E20F0BD0820FCE7092069
:107C9000FAE71020F8E729DF704728DF704770B552
:107CA00003689E6886B004460D466EB1142200211A
:107CB000684606F0DDF8A3680593237901952BB19A
:107CC000012B0DD06846B04706B070BD01238DF87A
:107CD000003023690293E368039363690493F1E737
:107CE00002238DF80030E3681B030293F5E7084692
:107CF0007047002070470000024B187A003818BF08
:107D000001207047502E0020034B187A0122B0FA50
:107D100080F05A7440097047502E002008B5104674
:107D20001A4606F07CF8002008BD000008B51422B1
:107D30000021044806F09CF80348FFF706FE0020E7
:107D400008BD00BF502E0020402E002010B5094C69
:107D5000094B43602046FFF739FF40B905F09AFD13
:107D6000064920741C2306488C22FFF7DBFD002007
:107D700010BD00BF502E00200CE00200B42D0020EA
:107D8000402E002070B5244C244E237A25463BB962
:107D900023492448FFF735FE306008B9606070BDA4
:107DA000022334682B72237973B1012B24D020462F
:107DB0000321FFF774FF00232B726B6018491948E9
:107DC000BDE87040FFF748BED4E90523D21AB2F5EA
:107DD000805FD4E9031028BF4FF480529208012A33
:107DE00038BF012219441844FFF755FF50B111283C
:107DF000DDD101232B72D2E7D4E903031844FFF746
:107E00004CFFF3E72B7C002BC9D10146BDE8704045
:107E1000022000F009B800BF502E0020682E00207C
:107E2000642E0020402E002038B5831E012B45D83B
:107E3000234C237A002B41D0022B09D1032830D0C8
:107E4000204B00221B68E2601A793AB1012A22D045
:107E5000637C7BBBBDE83840FFF794BFD3E90512D4
:107E60008D1AB5F5805F94BF521902F580529A6160
:107E70009142EDD102284FF0000308BF194623724A
:107E8000104B18BF0D211868FFF709FF0E490F4866
:107E9000FFF7E2FDDCE71A6901321A615B699A4279
:107EA000E7E7E3680133082B01D8E360D0E700235C
:107EB000E360DFE7BDE8384005F0DCBC38BD00BF5B
:107EC000502E0020682E0020642E0020402E00201E
:107ED00000F0FD03012B08D1044B00225A74421E0E
:107EE000504250411874FFF74DBF7047502E00208C
:107EF00010B5064C201DFFF769FE28B9637C1BB93D
:107F0000BDE81040FFF73EBF10BD00BF502E00205F
:107F10002DE9F34180460D460F4801A916461F463C
:107F2000FFF735FD0446A8B11C22002105F0A0FF93
:107F30002D0B0123237101A90748C4F80080A76015
:107F4000E5606661FFF74DFDFFF7D2FF002002B04C
:107F5000BDE8F0810420FAE7402E00202DE9F74328
:107F600081468846104801A917461E46FFF70FFDB7
:107F70000446B0B11C22002105F07AFF00250A9BBF
:107F8000A36001A9C4E9037807482571C4F80090EB
:107F90006661FFF726FDFFF7ABFF284603B0BDE89B
:107FA000F0830420FAE700BF402E002033DF704743
:107FB00041DF70470D4A08B5002313700C4A136067
:107FC000BFF35F8F0B490C4800F0A0F80B4A0C4838
:107FD0000121FEF7D3FA024630B9BDE8084009484E
:107FE0004FF48041FEF7D5BA08BD00BF982E00209F
:107FF0009C2E00203CE002006C2E0020F980020044
:1080000038E00200782E002007B500230DF10700AC
:108010008DF80730FEF7AEFBF1EE103A23F09F0328
:10802000E1EE103ABFF35F8F094B4022C3F8842181
:108030009DF80700FEF7C2FB05F02CFC20B1FFF70E
:10804000B7FF03B05DF804FB20BF40BF20BFF8E7D7
:1080500000E100E070B5224D044601212846FFF7FB
:1080600062FDBFF35F8F2E4638B9042C0AD01D4B3A
:108070001A781AB1BFF35F8F286070BD1A4A147066
:1080800001221A70194C184D636828787BB90238A0
:10809000012813D8BFF34F8F1549164BCA6802F455
:1080A000E0621343CB60BFF34F8F00BFFDE71B6857
:1080B000984788B1204600F033F8E5E705F0EAFB81
:1080C00008B1FFF773FF4FF080430122C3F800258A
:1080D000BFF34F8F20BFFDE7BFF35F8F3060CCE76A
:1080E0009C2E0020982E0020742E00206C2E002044
:1080F00000ED00E00400FA05034B1B7813B10420E7
:10810000FFF7A8BF704700BF982E00200B684A6891
:108110004360934208BF0023016008BF436070477B
:10812000436843B10268916852680B4493424360CC
:1081300004BF00234360704770B5446806460D468F
:10814000206818B1B3682946984718B923682B608E
:10815000256070BD2468F3E74368186808B10268B9
:108160001A6070474368186870474368186800B918
:108170007047884203D102681A60012070470346A5
:108180000068F4E738B5074C051E04F1080318BF72
:108190001C4623682BB11A6822605B682846984702
:1081A000F7E738BDA82E002020B9054B01225A70F0
:1081B000FFF7E8BF012802D1014A9070F8E7704745
:1081C000A02E002020B9034B01225A70FFF7DABF1E
:1081D000704700BFA02E002038B50E4C2378B3B9ED
:1081E0000D486360A3602361E36000F073F8054607
:1081F00005F050FB08B900F079F801232370074B14
:10820000D3F800340BB10123A370284638BD85256F
:10821000F5E700BFA02E0020A98102000000014068
:1082200037B50D4C00230DF107008DF80730FEF730
:10823000A1FAE368013BE360E36833B9074BD3F885
:10824000005415B900F064F8A5709DF80700FEF71A
:10825000B5FA03B030BD00BFA02E002000000140E1
:10826000012813B50CD0032820D038B9124B0122B5
:10827000C3F88020BFF34F8FBFF36F8F02B010BDE4
:108280000E4C00230DF107008DF80730FEF772FA4F
:1082900023780BB9FFF7A0FFE3689DF807000133CF
:1082A000E3600123A370FEF789FAE7E700F01EF808
:1082B000FFF7B6FFE2E700BF00E100E0A02E0020DC
:1082C00000F18040002382B0036003680193019BAA
:1082D00002B07047044A137923B9012110609180DC
:1082E0001846704785207047B42E0020074B1A6847
:1082F000D20704D4C02283F8002301221A604FF071
:1083000080430122C3F81825704700BF00E100E058
:108310004FF0804208B50223C2F808334FF4827050
:10832000FFF7CEFF034B01211960D2F81834DB03AD
:10833000FBD408BD0C000040124B1B6810B573B194
:108340004FF48070FFF7BCFF4FF080430122C3F869
:1083500008230D4B587910B95A711B6898470B4B7D
:108360001B6873B14FF48270FFF7AAFF4FF0804390
:108370000222C3F80823044BBDE810401B6801200B
:10838000184710BD00010040B42E00200401004039
:1083900000F1804000F5C040002382B00360036814
:1083A0000193019B02B07047800000F1A040D0F81B
:1083B000002722F44032C0F80027D0F8003743EA03
:1083C0000141C0F8001770472DE9F74F00244E4DCA
:1083D00001944FF48072012102F1804303F5C04300
:1083E00090B21B68012B06D1D5F804330B4202D0A2
:1083F000FFF7CEFF0C430432B2F5907F4FEA410104
:10840000EAD1424B1B68012B0CD14FF4BE70FFF731
:10841000BFFF4FF0A04344F00044D3F82025019261
:10842000C3F8202514F0FF0F1AD0394F012600257C
:10843000344210D0AB0003F1804303F5C043D3F8BE
:108440001005D3F8101557F8253023B1C1F30141B9
:10845000C0F3042098470135082D4FEA4606E7D1BE
:10846000002C48DA2A4D4FF0A0482A4E4FF0000960
:10847000012716F9013B5A1C31D0C3F3C20202A9ED
:108480000A44DCB212F8042C03F03F0A03F007039D
:1084900007FA03F31A4222D00AF5E073504658F85F
:1084A0002330C3F3014BBBF1020F0CBF03210221A8
:1084B000FFF77AFF07FA0AF3C8F8203505EB0A033D
:1084C00093F9303055F823304BB1A109032904D07A
:1084D000BBF1020F12D1012901D15046984709F191
:1084E0000109B9F1040FC4D1D8F820350193C8F8B7
:1084F0002035002BB9D103B0BDE8F08FBBF1030FDD
:10850000EDD10229E8E700BF006000407C61004037
:10851000BC2E00200C2F0020014B1B68184700BF09
:10852000182F00200023435082B043580193019B31
:1085300002B07047D0F8103170B505460C4653B103
:108540004FF48871FFF7EEFF63795A0703D523686C
:108550000BB101209847D5F814315BB14FF48A7103
:108560002846FFF7DFFF63791B0703D523680BB1AC
:1085700002209847D5F81C315BB128464FF48E7124
:10858000FFF7D0FF607910F0100002D1236803B12B
:108590009847D5F8043163B14FF482712846FFF74C
:1085A000C1FF0123237123681BB1BDE87040032084
:1085B000184770BD01490248FFF7BCBF202F0020BB
:1085C00000C0014001490248FFF7B4BF282F002036
:1085D00000100240114BD3F8183182B0E3B1104BB8
:1085E00000221A601B680193019B0E4BD97FFF2963
:1085F00007D0987F01228A404FF0A04148B1C1F8CE
:108600000C2500225A771A72D3E90021064802B0DD
:108610001047C1F80825F4E702B070470030004069
:1086200018310040302F0020382F00200023435005
:1086300082B043580193019B02B070470B7B032B20
:108640002AD8DFE803F022261A028B685A0304D5E1
:10865000D0F84C350A699A4207D18B685B031BD46A
:10866000D0F84C354A699A4216D000230622C0F849
:108670000035C0F8002518467047D0F84C350A6917
:108680009A42F2D1D0F83C35ECE7D0F84C350A6983
:10869000E9E7D0F83C35FAE701207047F0B54FF034
:1086A00040205C4CD0F8243187B0FBB14FF492717C
:1086B000FFF7BCFFD0F80431C3B9A368C0F8083392
:1086C0000223A360A368C0F80433D0F860311BB163
:1086D000D0F800329F0504D44FF0402301221A62E3
:1086E0005A61012384F82E3007B0F0BD4FF04025C9
:1086F000D5F80431002B55D04FF482712846FFF78E
:1087000095FF236A5E0609D494F82E3033B94149A7
:10871000FFF794FF80F0010084F82E00236A5D07C4
:1087200024D43D4E0FCE01AD0FC533682B604FF4FE
:10873000B0714FF04020FFF779FF4FF4AE714FF06A
:108740004020FFF773FF94F8303013B194F82E30C7
:1087500063B14FF040230022C3F80022A2602F4AE9
:10876000C3F808232E4B1022C3F880214FF040227B
:10877000D2F8C434C2F8C43498073DD501238DF82B
:10878000003094F830300BB984F82F30236A5B073F
:1087900003D594F82E30002BA6D0D4E900316846DA
:1087A0009847A1E74FF4A4712846FFF73FFF237BCA
:1087B00083B9194F0FCF01AE0FC63B68336094F8F1
:1087C0003030002BD2D1C5F80032A360134BC5F86E
:1087D0000833C7E74FF40073C5F8003240F20223B4
:1087E000A36003F1CE73C5F80833A368C5F804335A
:1087F0000123AB602B6277E7590701D50223BEE75F
:10880000DA0701D50323BAE794F82E30002BB6D04F
:108810000423B4E7542F0020602F002002029C01A3
:1088200000E100E000F1804000F5E040002382B06C
:10883000036003680193019B02B07047F0B5504B91
:10884000504C1B6885B0002B3DD04FF4827094F8DB
:108850002E20FFF7E7FF2AB394F82F3013BB4A4BC3
:108860001B68002B33D04FF48070FFF7DBFF638B66
:1088700094F82D108B424FD922895B1A9BB292B289
:108880006383D31A626802EB4303404AC2F82C3672
:10889000C2F830164FF48270FFF7C4FF3C4B012240
:1088A0001A6014E0636802932389ADF80C30E36822
:1088B00000218DF8041023BB2374236801A8984776
:1088C000002384F82F3094F82E30002BC7D1314B81
:1088D0001B685BB14FF48870FFF7A4FF002323747B
:1088E00002238DF8043001A8236898472A4B1B689F
:1088F000EBB14FF48A70FFF795FF0023237405B0A6
:10890000F0BD208B608363602081E160002AD4D1B8
:108910001E4B01221A60D0E7BCD1E368012284F823
:108920002F2013B100226283AFE76383B2E7666949
:108930004FF000470125002EE1D0B6FA86F227FA63
:1089400002F34632920026EA030602F1804303F561
:10895000E0431B68002BEED01046FFF763FFA2F543
:108960008C72D30882F00402C2F380028DF80830C2
:108970008DF8045023688DF8092001A89847DAE79C
:1089800004710040882F00200071004000700040FA
:1089900004700040107100401471004038B5204A46
:1089A00092F82C300446002B37D111601D49007815
:1089B000C1F8F0056078C1F8F4050125137482F858
:1089C0002D30536182F82F30E07882F82E006FF05E
:1089D000004382F82C504FF48270C1F80833FFF73F
:1089E00021FF4FF48070FFF71DFF4FF48A70FFF7EF
:1089F00019FFA3780C485B01DBB280F807338023B2
:108A000003600223C1F8043392F82E300BB1C1F891
:108A10000453C1F80055002038BD0820FCE700BF12
:108A2000882F00200070004000E100E070B52A4B64
:108A30001A7C02F0FF05002A4BD10A79012A9CBF5B
:108A4000264CC4F8005500F10C0503EB45042479CD
:108A500024B993F82D40013483F82D4003EB4503EE
:108A6000CC790D7A8E781C715D714B7836021B01C2
:108A700006F4E06603F0300333430E7806F0030695
:108A80003343CE78360306F480563343160406F497
:108A9000E02633434E798979360506F480160906B7
:108AA000334301F080710B430C4901EB00160001C8
:108AB00000F1804000F5E040012AC6F81835C0F802
:108AC0001455C0F8104502D80123C1F80035002024
:108AD00000E0112070BD00BF882F00200070004012
:108AE000054B93F82E30002B14BF0020042000F11A
:108AF000804000F5E0407047882F002070B5264A7E
:108B0000264B05461220C2F808031C7C022C03D118
:108B1000C2F80403112070BD187C01281DD1D8684B
:108B200018B10223C2F80433F4E7DD60198393F827
:108B30002E3063B91A4A1368002BFCD04FF48070B2
:108B4000FFF770FE144BC3F82C56C3F83016124BC7
:108B50000222C3F804230020DDE7022093F82E4010
:108B6000C2F80403012600201E745D601981D860DC
:108B70003CB1598393F82D30C2F82C56C2F83036E8
:108B8000C9E7C2F82C564FF48070C2F83016FFF7D0
:108B900049FE20461660BEE700700040882F002086
:108BA00000710040034B187810B901221A70704709
:108BB00085207047B82F0020F7B506792F4D0C237C
:108BC0007343EF183C7A002C55D1EA504B687B6018
:108BD000477903682246A446D4B2A7423CD8CA7853
:108BE00043F307345201002CC3F30733D2B23DDB09
:108BF000234F07EB040C8CF800230122640903F0D7
:108C00001F0302FA03F347F8243003684A78D3F8C5
:108C1000040502F0030220F003000243C3F8042518
:108C2000D3F808058A7820F0030002F0030202431B
:108C3000C3F80825D3F810050A7820F00F0102F0D8
:108C40000F020A43C3F810250C2303FB065501232A
:108C50002B72002003B0F0BD940004F5A074013223
:108C600043F804C01C590194019CB5E7054C03F07E
:108C70000F03E254C9E70820ECE700BFBC2F002037
:108C800000E100E014ED00E0036801221A600379BE
:108C9000034A0C2101FB032302221A72704700BF12
:108CA000BC2F002037B54FF4803400688C407BB176
:108CB0008B0003F5A0730025C550C3580193019B99
:108CC000C0F8044301F5A87140F8212003B030BD7D
:108CD000C0F80843F6E770B4046840F20116D4F80F
:108CE00000528E4025EA0605C4F80052D4F800521E
:108CF0002B43C4F800329DF80C3070BCFFF7D2BF94
:108D00002DE9F341104C114F114E00254FF48038DE
:108D1000236883B1D7F8043308FA05F21A420AD05F
:108D2000002323602368019304F5C040019B80B2B7
:108D3000D6E9003198470135062D04F10404E7D146
:108D400002B0BDE8F08100BF40A1014000A0014099
:108D5000BC2F00202DE9F74F4FF00009154D164F9D
:108D600006464FF0040AC8465FFA89FB01240DF15C
:108D7000070004FA0BF48DF80780FDF7FBFC2C428A
:108D800008D03B6814EA030201BF23433B6086F826
:108D900000B092469DF80700FDF710FDBAF1000FF4
:108DA00003D0A54309F10109DED1504603B0BDE867
:108DB000F08F00BFFFFF0100C82F002010B5A1B148
:108DC0009AB101238340C3F3100484B10A4C246890
:108DD00023420ED0C00000F1804000F5F830C0F80A
:108DE0001015C0F81425002010BD0E20FCE7072048
:108DF000FAE70820F8E700BFC82F0020012202FA96
:108E000000F3580C400440B91BB1064A12681342E3
:108E100005D0054AC2F8043570470720704708207E
:108E2000704700BFC82F002000F0014008B500F0D7
:108E300099F904F07FF804F0B3F804F085F800F035
:108E40005FF8064B064C074D01221A7004F014FC23
:108E5000C4F8005604F06CF8F8E700BF6E3000204C
:108E6000000001403546526E174810B5174C0421DA
:108E7000024614F8013B13B1038801339BB2013958
:108E800020F8023BF5D113883B2B81BF104B11809A
:108E9000012119705388C72B04D9002353800C4B30
:108EA000012159709388C72B04D900239380084B64
:108EB00001219970D388C72B04D90023D380044B98
:108EC0000122DA7010BD00BF663000206E30002035
:108ED0007230002008B5FDF71FFB08B1FDF778FAE6
:108EE000054A06480121FDF749FB18B1BDE80840D5
:108EF000FDF76EBA08BD00BF698E020048E00200AF
:108F000008B50648002240F23331FDF742FB18B1A4
:108F1000BDE80840FDF75CBA08BD00BFD02F0020B7
:108F20007047000070B5037804460BBB406804210D
:108F3000FFF7E4FD08B1FDF74BFA62681849901E8F
:108F4000063230F8025F0C46092334F8026C24F82C
:108F50000269013BF9D1904221F8125C01F1140140
:108F6000EFD110490A780132D2B20B2A01D00A702F
:108F700070BD0B700C4C0A490A25A1F114000022A7
:108F800030F8026F81423244FAD1B2FBF5F201337C
:108F9000042B24F8022B01F11401EED1E8E700BF05
:108FA000143000205D3000205E3000201FB5FFF738
:108FB000F9FD08B1FDF70CFA174A18480023CDE96E
:108FC000022302A9164AFFF7F7FD08B1FDF700FAE0
:108FD000144B1548D3F810250021D2B220FA02F222
:108FE000009101230D48FFF776FE0C48FFF74CFE79
:108FF000FFF776FD04460D48FFF7ACFE08B1FDF71C
:10900000E7F90A4B0A4918782246FFF7D7FE08B15C
:10901000FDF7DEF904B010BD0900000674E002009F
:10902000218F020000A0014000093D000030002017
:1090300040A1014008B5054B1878FFF7DFFE18B1D5
:10904000BDE80840FDF7C4B908BD00BF00300020EE
:1090500030B5304B8FB01D461868019055F8040F9D
:10906000696802AC03C4297A21701D4605AC55F825
:109070000D0F696803C4297A21701D4608AC55F8A4
:10908000160F696803C453F81F0F297A21705968B5
:109090001B7A0BAC03C402221F498DF8042001A8DF
:1090A000ADF80A20ADF81620ADF822202370ADF8F7
:1090B0002E20FFF773FC08B1FDF78AF902A9002002
:1090C000FFF7B4FC08B1FDF783F905A90120FFF70C
:1090D000ADFC08B1FDF77CF908A90220FFF7A6FC5A
:1090E00008B1FDF775F90BA90320FFF79FFC08B144
:1090F000FDF76EF909480421FFF700FD08B1FDF7FF
:1091000067F907480421FFF7F9FC08B1FDF760F99A
:109110000FB030BD4CE00200258F0200F02F002080
:10912000F82F00200C4A002313704FF080510B4A97
:1091300013704A6E0A4B100E1870100C5870100AFB
:109140009870DA700A6EDA71110E1971110C59717A
:10915000110A9971704700BF53300020543000202D
:109160005530002008B5FFF7B5FEFFF7DBFFFFF72E
:109170001DFFFFF76DFFBDE80840FFF75BBF000074
:10918000044B1868421C04BF034B1878831F5842D5
:109190005841704730010010E00F00F0074B1B787A
:1091A000062B09D1064B1B68C3F30313033B032BA8
:1091B00002D8044AD05C704700207047E00F00F0EE
:1091C000E80F00F084E0020008B5FFF7D9FF28B1EE
:1091D000664B674A1B68C3F304231360FFF7DEFF87
:1091E00010B1644B644A1A60FFF7CAFF28B1634BA1
:1091F000634A1B68C3F342331360FFF7CFFF20B10C
:10920000604AD36823F08073D360FFF7B9FF40B1A1
:109210004FF080430022C3F80C21C3F81021C3F89B
:109220003825FFF7BBFF10B1574B03221A60FFF739
:10923000B5FF40B1554B05221A6001229A67002202
:109240009A603F225A60524B1A68511C0BBF514B17
:10925000514B1A781B6802BF08331B68C3F3031312
:10926000062A4DD1033B032B03D84C4AD35C002B79
:1092700046D04FF080524A4BD2F80414C3F8201560
:10928000D2F80814C3F82415D2F80C14C3F8281522
:10929000D2F81014C3F82C15D2F81414C3F83015F2
:1092A000D2F81814C3F83415D2F81C14C3F84015BA
:1092B000D2F82014C3F84415D2F82414C3F8481582
:1092C000D2F82814C3F84C15D2F82C14C3F8501552
:1092D000D2F83014C3F85415D2F83414C3F860151A
:1092E000D2F83814C3F86415D2F83C14C3F86815E2
:1092F000D2F84014C3F86C15D2F84424C3F8702592
:10930000FFF73EFF28B1274B274A1B6803F04F03A6
:109310001360FFF735FF48B14FF08043D3F80024C6
:10932000D20744BF6FF00102C3F80024184B1B683A
:10933000062B0CD1184B1B68033B032B02D81B4A8E
:10934000D35C23B11A4A136843F480631360194A4B
:10935000D2F8883043F47003C2F88830BFF34F8FDF
:10936000BFF36F8F144B154A1A6008BD2403001019
:109370004035014074C007400DF0ADBA4402001002
:109380003C050040F0ED00E0A00500401056004014
:1093900030010010E00F00F0340100107CE002000A
:1093A00000C0004058020010E40E004080E00200BF
:1093B0003C17004000ED00E0D02B00200090D003CF
:1093C0006DDF704779DF70477DDF704764DF70477E
:1093D0002DE9F04F85B000250E9CBDF83CB0B4F8E7
:1093E00000A00191074690461E46A9463A884A4584
:1093F0000DDC45B12388013BA3EB0A039BB2FF2B95
:109400003AD806F80A30002005B0BDE8F08F7A6837
:1094100052F82900039000220DF10B0103A8FFF779
:10942000D5FF0028F0D19DF80B20424521D122889C
:10943000002D14BF0020022002EB08010144594511
:109440001ADC3DB9013292B2019B2280B3542288CA
:109450000132228022880DF10B01324403A8FFF76C
:10946000B5FF0028D0D121889DF80B200A44228026
:10947000012509F10109B9E70C20C5E72DE9F34100
:10948000089FBDF824801546CDE9007802220446E5
:109490001E46FFF79DFF50B933461022294620464D
:1094A000CDE9087802B0BDE8F041FFF791BF02B006
:1094B000BDE8F0812DE9F04F00231788138090F864
:1094C0002D3085B006460D46144653B3082F01D8FB
:1094D0000C2027E102A8FFF773FF002840F022814B
:1094E00023880822EA54238801339BB21B2223805D
:1094F000EA542088013080B2208006220DF1090153
:10950000284404F08CFC23889DF8082006339BB285
:1095100012F0FE0218BF01222380EA54238801338F
:109520002380B378FBB123880433BB42D0D802A890
:10953000FFF748FF002840F0F58023880322EA5413
:10954000238801339BB219222380EA542388BDF873
:10955000082001339BB2E9182380EA54120A4A70AA
:10956000238802332380F2789AB12388D91CB94228
:10957000AED80221E954238801339BB20121238014
:10958000E95423880B449BB22380EA5423880B447C
:1095900023807268AAB12388D91CB94298D80221C5
:1095A00092F90020E954238801339BB20A212380D9
:1095B000E954238801339BB22380EA542388013382
:1095C00023803389002B40F0A180338A5BB1CDE941
:1095D00000472B460722032106F11000FFF74EFF3C
:1095E000002840F09F80338B5BB1CDE900472B46CC
:1095F0001522142106F11800FFF740FF002840F063
:109600009180326A002A40F09080D6F82480B8F128
:10961000000F30D0B8F804302188981C8A1C02440E
:10962000BA423FF655AFFE283FF652AF03336B54B4
:10963000238801339BB2FF222380EA54238801331D
:109640009BB22380B8F80020EA54E918120A4A7045
:109650002088023080B22080B8F804205AB1D8F8AF
:10966000081000296BD0284404F0D9FB2388B8F8EF
:1096700004201344238096F82C30002B40F09A806D
:10968000307800284ED03388012B58D0228802F140
:10969000020CBC453FF61CAF012805D1737802339C
:1096A00013449F42FFF414AF023FBF1ABFB202A996
:1096B00005EB0C00ADF80870FFF786FE90BB317823
:1096C000BDF80830022900F0BA8072789A4202D3BD
:1096D000BB4240F2B280012940F0B380974293B27E
:1096E000C0F0AF80ADF808300821BDF80830FE2B7F
:1096F0003FF6EEAE22880133AB542288013292B29B
:109700002280A9542288134423800BE0CDE900472E
:109710002B460622022106F10800FFF7AFFE0028C3
:109720003FF453AF05B0BDE8F08FB4F800C00CF1C2
:109730000603BB423FF6CCAE1188052901D80720AD
:10974000F0E76FF4486E01EB0E039BB24FF27D3EE3
:109750007345F4D95388052BF1D96FF44860181874
:1097600080B27045EBD94FF6FF70814203D083423F
:1097700001D09942E3D8052305F80C302388013342
:109780009BB212212380E954238801339BB22380AA
:109790001188E954E818090A4170238802339BB202
:1097A00023805288EA54E918120A4A702388023347
:1097B00023802AE7B36A002BC1D04FF000094FF095
:1097C0000C0A4FF0160B96F82C305FFA89F2934290
:1097D0007FF656AFB16A0AFB02F201EB0208B8F855
:1097E0000430981CFE283FF673AE208803332B54B8
:1097F000238801339BB2238005F803B0238801330B
:109800009BB223808A5AEA54E918120A4A702088C7
:10981000023080B22080B8F804205AB1D8F808107D
:1098200000298CD0284404F0FAFA2388B8F80420E0
:109830001344238009F10109C5E7092155E7BB421B
:10984000FBD9ADF808704FE730B5C8B1F2B10024CC
:10985000651C8D4206DA1588A54212D805196D7867
:109860009D420ED1A14211D9005D48B1013880B2AC
:1098700030B10234A3B210FA84F4A14206DB1380A3
:1098800030BD055D01352C44A4B2E1E70020F7E7C7
:1098900013B513460022ADF806200DF1060204466A
:1098A000FFF7D2FF10B1BDF80630E01802B010BDCE
:1098B00072DF704773DF704738B5012204460D46EA
:1098C000B0F81414D0F81004FFF7E2FF00B10570EF
:1098D00004F13C0204F5826104F15400BDE8384013
:1098E000FFF7E6BF80F830107047F8B504460F4622
:1098F000002975D0002873D091F87A301BB191F807
:109900009830002B6ED1D7F8A030042B6AD0D7F84E
:109910009C30042B66D04FF0000C84F802C007F195
:1099200078060FCE251D0FC50FCE0FC596E8070090
:1099300085E8070084F830C0D7F8A4306363D7F80F
:10994000A830A3634FF6FF7504F58263C4F8203492
:10995000A4F824540722614604F2264004F088FA51
:1099600023780BB984F8545094F82430002B14BF9A
:10997000EE231F2304F15501C4F81014A4F8143485
:1099800004F214423846FFF795FD40BB94F82430AA
:10999000002B14BFEE231F2304F23121C4F8181446
:1099A000A4F81C3404F21C4207F13C00FFF782FDCE
:1099B000A8B9A369A4F848304FF480730125A4F82E
:1099C000503063692064014684F83C50636404F1BC
:1099D0003C0204F15400FFF76BFF00B92570F8BD9D
:1099E0000E20FCE70720FAE7F8B5077804460D4695
:1099F000002F00F0038100F226468170072200212B
:109A0000304604F035FAE38813B1A378012B04D073
:109A1000E3794BB1A378022B06D1636BA3B101228A
:109A200084F82D2408209847334604F22C4113F87B
:109A3000012F12B99942FAD117466B1E032B51D848
:109A4000DFE803F0050B0F1284F82D34ECE7A3795F
:109A50001BB194F8243003B95FB9E3790BB1002F3F
:109A600042D1237A002B41D1637A002B0CBF002511
:109A70000425636BA570002B3AD0033D012D37D828
:109A80006279AAB394F82E2492BB84F83024012280
:109A900084F82F240720984704F13C051822002160
:109AA000284604F0E5F9E26A531E0121022B28BF83
:109AB0000A4684F8512094F8242084F83C1032B1EE
:109AC000A36A581E022828BF0B4684F85230A1789A
:109AD000002384F8503004291BD8DFE801F0770D0B
:109AE000223559000025C4E70225C2E70325C0E757
:109AF000002384F82F34CFE7C4E91063C4F820347E
:109B00000223012284F83C30802384F83120A4F819
:109B10004830A378002B5CD1636B002B6AD1002006
:109B200067E00223002A84F8313014BF072303239F
:109B300084F83C302369A4F848300023C4F820346A
:109B4000E36826646364E4E763696364A369A4F873
:109B5000483012B1062384F83C306379B3B194F8ED
:109B60002E349BB994F8303483B1022384F85030FA
:109B700004212046FFF7A0FE0028CAD1052384F85F
:109B8000313004F58263C4F82034C2E70323F6E7DA
:109B9000E3696364236AA4F8483012B1062384F8A9
:109BA0003C30637983B194F82E346BB994F8303437
:109BB00053B1022384F8503004212046FFF77CFE85
:109BC0000028A6D10623DAE70423D8E784F8313049
:109BD0009FE7D4F820142A4604F15400FFF768FEEA
:109BE00038B994F8301094F85400FFF763FE002859
:109BF00092D0F8BD94F83100984790E70820F8E734
:109C00000388112B10B50C460AD0262B1FD0102B21
:109C100005D1C37B012B02D18388A1F8243410BD68
:109C20000022838881F82E24B1F824249A42F6D1A8
:109C30000B79002BF3D101212046FFF7D5FE002838
:109C4000EDD0A36B002BEAD0BDE810401847037A93
:109C5000013B012BE3D8897805230131B1FBF3F3F4
:109C600003EB8303C91AC9B2E6E730B50D46041DFC
:109C70000FCD0FC40FCD0FC495E8070084E807008F
:109C800030BD75DF704776DF70477ADF70477BDF66
:109C900070470000034B1A8882420CBF1846002010
:109CA000704700BFA8300020024B9B6903B11847E2
:109CB000704700BF8C30002073B585B22846FFF78F
:109CC000E9FF044670B1164E027A337B9A420BD2FA
:109CD00000F10A012846FFF7D4FFE8B1112801D0AE
:109CE000FFF7E2FF02B070BD00230372337C43B183
:109CF0003B212846FFF7C7FF30F0080301D0FFF7EC
:109D0000D3FF7369002BEDD000228DF80420ADF84D
:109D1000065001A89847E5E7237A01332372E1E76B
:109D20008C30002037B50B46497A0F4A71B9D2E919
:109D300001141D7A0246002D18BF21465868FCF711
:109D400028FC08B1FFF7B0FF03B030BD0021197245
:109D50005369002BF8D00122ADF806008DF80420DD
:109D600001A89847F0E700BF8C3000204B8802889C
:109D70009A4213D842889A4210D380888A8840F247
:109D8000F313984294BF031AC31A934206D800F201
:109D9000F310904234BF002001207047002070472C
:109DA0000388122B70B5014659D004D8102B1ED051
:109DB000112B44D070BD502BFCD12F4BC288DB89B6
:109DC0009A42F7D1038A022BF4D186883046FFF7F6
:109DD00061FF05460028EDD001F1120000F01DFAE8
:109DE00038BB6868FCF7EDFB0028E3D009E0C37BD3
:109DF000012BDFD14FF6FF70FFF74CFF054620B96E
:109E00000420BDE87040FFF74FBF1C4A8E880680D3
:109E1000002303721368C0F80A305368C0F80E308C
:109E200010310A30FFF7A2FF134B6872DB89002B59
:109E3000C0D129463046BDE87040FFF773BF808827
:109E4000FFF728FF04460028B4D04068FCF7B9FBB0
:109E500008B1FFF729FF4FF6FF732380AAE7868832
:109E60003046FFF717FF05460028A3D008310A3017
:109E7000FFF77CFF6872DCE78C300020BC300020EC
:109E8000F8B5064648B305460FCD154F3C460FC4FE
:109E900095E8070084E807003068124C3C60B0B1D8
:109EA000FFF7F3FEC0B9326813682360536863603C
:109EB0000D480E4A4FF6FF7303800D4B40F8043FE8
:109EC0000021FCF75BFB002818BF032004E02046BC
:109ED000FFF7DDFE0028EBD0F8BD0E20FCE700BF49
:109EE0008C300020BC300020A8300020B99C02003B
:109EF000C8300020F7B5174601900E4691B1019C7D
:109F00006CB100252C46294601A8FDF7D6FD18B1F5
:109F10003946A8B2B04701340135142DF3D120469B
:109F200003B0F0BD0C46FAE70AB1FDF7A5BDFDF799
:109F3000BABD73B50191019C06466CB100252C4653
:109F4000294601A8FDF7B9FD18B106EB4403013419
:109F50009D800135142DF3D13046346002B070BDC0
:109F60002DE9F04703888488103B8CB005460A2B06
:109F70001FD8DFE803F0063F1E1E1E1E1E1E1E60B9
:109F80004400314EB368DB43009371686846FDF7C7
:109F9000EDFD009901A8FFF7CCFF0DF108094FF086
:109FA0000008019B984507D3132C13D90420FCF714
:109FB0000FFA0CB0BDE8F08739F802AB0027013783
:109FC000514606EB8700FDF76EFD1E2FF7D108F115
:109FD0000108E6E71D482146FDF74EFD1C482146D5
:109FE000FDF74AFDEB7B022BE3D11A482146FDF732
:109FF00043FDDEE715482146FDF755FDD9E7027A16
:10A0000015483F2A4FEA1215214694BF002201222B
:10A01000FFF78AFF022D94BF002201220F4821463C
:10A02000FFF782FF012D0E4894BF00220122214636
:10A03000FFF77AFFBDE7037A002BBAD1427A0648D0
:10A04000C2F3C0022146F3E7E8300020F0300020E0
:10A05000EC300020F430002000310020FC300020E3
:10A06000F83000201328014602D80248FDF725BD2C
:10A0700000207047EC30002007B50190FFF7F2FF99
:10A08000019930B10448FDF718FD002814BF0220E3
:10A09000012003B05DF804FBF430002007B5019007
:10A0A000FFF7E0FF019930B10448FDF706FD0028F5
:10A0B00014BF0220012003B05DF804FBF030002043
:10A0C00007B50190FFF7CEFF019928B1044803B00E
:10A0D0005DF804EBFDF7F1BC03B05DF804FB00BFD5
:10A0E000F830002007B50190FFF7BCFF019928B1B7
:10A0F000044803B05DF804EBFDF7DFBC03B05DF886
:10A1000004FB00BFFC30002007B50190FFF7AAFF59
:10A11000019928B1044803B05DF804EBFDF7CDBC0C
:10A1200003B05DF804FB00BF0031002008B5182122
:10A130000248FDF7CBFCC0B208BD00BFE8300020EC
:10A1400070B50A4E054630460C46FDF7B6FC58B1D0
:10A150002846FFF787FF38B10734294606EB84000D
:10A16000BDE87040FDF7A9BC002070BDE8300020BC
:10A17000F8B50B4F054638460C461646FDF79DFCD4
:10A1800060B12846FFF76EFF40B1073432462946DA
:10A1900007EB8400BDE8F840FFF7C6BEF8BD00BF7E
:10A1A000E8300020034B9B680A4601461846FFF73B
:10A1B000A1BE00BFE830002073B50B4D01920446EC
:10A1C0000E4601462846FDF778FC50B1063405EBF3
:10A1D0008404019A6068314602B0BDE87040FFF720
:10A1E00089BE02B070BD00BFE8300020AADF704712
:10A1F000002301380B70042806D8DFE800F00306BE
:10A20000080A0C0011230B7070472123FBE7312350
:10A21000F9E71223F7E72223F5E7007800F00100C1
:10A2200070470078C0F340007047F0B58B7891B06C
:10A23000012B0C4638BF01238DF80E3005460B88E4
:10A24000ADF80C30002116466846032203F010FEDC
:10A25000607C6946FFF7CCFFA07C0DF10101FFF7A0
:10A26000C7FFE27B237B217D43EAC203227C43EAD2
:10A2700002139DF80220002922F0190203F01903AD
:10A2800014BF02210121134361F342031C22002168
:10A2900009A88DF8023003F0EBFD637B13F0300F5B
:10A2A00015D002AF03220021384603F0E1FDE07C27
:10A2B0000DF10901FFF79CFF11238DF808309DF87F
:10A2C0000A300E97012262F342038DF80A30637B55
:10A2D0008DF824301422A37B8DF82530002104A8AA
:10A2E00003F0C6FD03AB0493A388ADF81C30A3684C
:10A2F000CDF814D01BB1E288ADF818200893A369FB
:10A30000002B31D001AF03220021384603F0B0FD0D
:10A31000A3691A88ADF82C205A88ADF82E205A6807
:10A320000D97187B0A923946FFF762FFA3690DF17A
:10A330000501587BFFF75CFFA269917A137A43EA23
:10A34000C103D17A927B43EA01139DF80610002ADB
:10A3500003F0190321F0190114BF022201220B435B
:10A3600062F342038DF80630E36903B10C93334680
:10A3700004AA09A92846FFF739FF11B0F0BDA0DFF4
:10A380007047A1DF7047ADDF7047B3DF7047B4DFC0
:10A39000704710B50446408800F07CFCA080204641
:10A3A000BDE8104001F0C8BB30B587B005460C468B
:10A3B0001422002101A803F05BFD072301A88DF8FA
:10A3C0000430ADF806500394FFF7E3FF07B030BD4B
:10A3D00030B587B005461422002101A803F048FDDE
:10A3E0004FF6FF739D42ADF8065023D0284600F08B
:10A3F00064FB1128044617D007D860B10B2811D090
:10A4000021462846FFF7D0FF03E043F202039842BB
:10A41000F6D1002209E00E2301A88DF80430FFF7E1
:10A42000B8FFF6E70F23F7E70122034B2846197818
:10A43000FFF79EFE07B030BD6B310020FFF7C8BFAD
:10A44000024B034918780022FFF7B6BE6D31002099
:10A4500055A402002DE9F0473E4C88B0217805460E
:10A46000FFF76EFEA046064600286CD1284600F095
:10A4700077FB0828014622D006D888B106284BD0A1
:10A480002846FFF791FF09E043F20203984205D006
:10A4900043F20143984259D01128F1D1012446E0FA
:10A4A0003146142203A803F0E3FC102303A88DF81F
:10A4B0000C30ADF80E500126FFF76BFFEEE70DF103
:10A4C0000600FFF762FF344601274FF0020A0DF144
:10A4D0000809BDF80630BB421ED90022494638465D
:10A4E000CDE903A9FFF753FFB0B9BDF808303CB977
:10A4F00042F605241B1B5C425C410137BFB2E8E712
:10A5000042F602129342F8D101AB03AA394628461B
:10A510000493FFF738FF30B1284600F0BBFB00F092
:10A5200039FB002403E0BDF80430002BF4D00A4BC3
:10A53000224619782846FFF71BFE98F8001032468D
:10A540002846FFF715FE08B0BDE8F0872846FFF75C
:10A550003FFFA3E76E3100206D31002013B50446A4
:10A5600000F098FB00236A46092100F045FF05280A
:10A5700005D1044B012219782046FFF7F9FD02B0FE
:10A5800010BD00BF6931002008B5084B0849187894
:10A590000022FFF711FE024630B9064B0649187833
:10A5A000BDE80840FFF708BE08BD00BF6C310020C1
:10A5B00005A6020069310020BDA5020037B504469A
:10A5C00004220021684603F053FC42F6A623ADF8AE
:10A5D00000300A4B18680190012501AA69462046FF
:10A5E0008DF80250FFF7CBFE28B9054B2A461978A3
:10A5F0002046FFF7BDFD03B030BD00BF88E002007C
:10A600006831002030B5012187B005461C48FDF7B0
:10A610008AFA0446BFF35F8F70BB284600F008FA41
:10A62000862801460ED007D8D0B1112826D028465A
:10A63000FFF7BAFE002403E043F202039842F6D18A
:10A6400022460FE01422214601A803F011FC062344
:10A6500001A88DF80430ADF80650FFF79AFEEFE739
:10A6600001240246074B28461978FFF781FD1CB9E3
:10A67000BFF35F8F024B1C6007B030BD0122F1E7D2
:10A68000643100206C31002038B503780446A3B94A
:10A690004088FFF79DFE6588284600F04EFA28B1F5
:10A6A000064B012219782846FFF762FD6088FFF704
:10A6B00055FFBDE83840FFF767BF38BD6D3100205A
:10A6C00037B50378082B044630D1427A72BB057A3D
:10A6D000072D1BD0082D2DD0012D27D180886A464B
:10A6E000294601F0B7F808BB019B1B78F3B1A0889D
:10A6F00000F0FEFA4FF6FF73984217D0114B2A462E
:10A700001978FFF735FDFFF79BFE0FE0808800F01A
:10A71000EFFA4FF6FF739842044607D00A4B012226
:10A720001978FFF725FD2046FFF718FFFFF72CFFEC
:10A7300003B030BD054B19680129F7D1BFF35F8F16
:10A740001A60F3E76D3100206C3100206431002085
:10A750002DE9F843FFF7EAFCDFF89090DFF89080EE
:10A7600089F80000FFF7E2FC88F80000FFF7DEFC44
:10A77000184F194E3870FFF7D9FC3070FFF7D6FC30
:10A78000164D174C2870FFF7D1FC2070FFF7CEFC58
:10A79000144B187099F80030182B18D098F8003026
:10A7A000182B14D03B78182B11D03378182B0ED0DF
:10A7B0002B78182B0BD02378182B08D0182806D00C
:10A7C000094B00201860BFF35F8FBDE8F8830320BA
:10A7D000FBE700BF6D3100206E31002069310020A1
:10A7E000683100206A310020643100206C31002083
:10A7F0006B31002073B50123ADF8003009238DF8CB
:10A8000002300D4B002422460E461978CDF8034045
:10A8100005468DF80740FFF7ABFC084B0849284672
:10A82000A64218BF1946019100F034FA2246694643
:10A8300000F04EFE02B070BD6931002090E00200D1
:10A840008CE0020070B503888488502B86B00546E2
:10A8500037D00DD8352B47D0362B62D03E4B3F49F1
:10A8600018780022FFF7A8FCFFF7EAFD06B070BDDC
:10A87000522B22D0542BF1D11422002101A803F035
:10A88000F7FA112320468DF80430ADF8064000F0A9
:10A8900001FAADF8080000F07DF9314B2046197837
:10A8A0000022FFF765FC2F4B204619780022FFF7A6
:10A8B0005FFC01A8FFF76DFDD0E72046FFF788FD9C
:10A8C000CCE7037B012BC9D1827A012AC6D1018949
:10A8D00042F602139942C1D1234B20461978FFF763
:10A8E00047FCFFF751FEB9E7204E20463178FFF7CD
:10A8F00027FC0028B2D0002231782046FFF738FC30
:10A90000EA883ABBAE89012E24D1E9892046FFF7B7
:10A9100038FDF8B9164B324619782046FFF728FC67
:10A920009CE7134E20463178FFF70AFC002895D0AB
:10A93000317800222046FFF71BFCE98851B9EB89EA
:10A94000012B03D1297C003918BF01212046FFF7D4
:10A9500051FF83E70021F9E76B3100203DA402009D
:10A960006E3100206D3100206C31002068310020F4
:10A970006A310020AFDF7047B1DF7047B2DF704748
:10A98000B3DF704710B50446808800F0B1F96080ED
:10A990002046BDE8104001F0D1B80000F0B5184BDA
:10A9A000184D93E8030089B001AE86E803004FF626
:10A9B000FF772888B8421CD00022314600F088FD7D
:10A9C0000446C0B11422002103A803F051FA2B88D9
:10A9D000ADF81030112C0CD0862C0CBF06230723A9
:10A9E00003A80EBF8DF80C308DF80C300594FFF7DE
:10A9F000C9FF09B0F0BD288800F0C5FD2880D8E760
:10AA000094E0020070310020044B1A884FF6FF7367
:10AA10009A4201D0FFF7C2BF704700BF70310020DB
:10AA2000024B4FF6FF721A800020704770310020F1
:10AA30002DE9F743804600F02DF94FF6FF73984259
:10AA4000064637D001274FF003093A466B460821E6
:10AA5000304600F003FF0137BFB2054628BB01991D
:10AA60000A46032342F8049B06314046FFF786FF5F
:10AA7000044648B932460821304600F078FF0446C3
:10AA8000204603B0BDE8F0830C280CD0052800D187
:10AA90002C460821304600F041FF002818BF03244F
:10AAA000002DD2D1ECE70125F3E7072814BF0446B7
:10AAB0000C24E5E743F20204E2E72DE9F3410746FF
:10AAC00000F0E8F84FF6FF73984218D100240325F0
:10AAD00026464FF001082B46224631463846FFF7FE
:10AAE0004BFF042821D0082825D00B281ED115F0B3
:10AAF00002030FD196B9ACB902B0BDE8F0816A4645
:10AB0000082100F0A7FE0028E0D1019B9C881D6869
:10AB10009E1DDEE701254FF00008DCE703251C46FB
:10AB20001E46F8E703253446F5E71120B8F1000F7B
:10AB300008BF0B20E0E70020F8E71FB50DF1070381
:10AB4000039300F0A7F802AA012100F083FE20B9C8
:10AB5000039B187805B05DF804FB0020FAE70000BD
:10AB600070B505460A48FFF70BFF70B9084C43F271
:10AB7000030621884FF6FF722846FFF7FBFEB0421E
:10AB800004D1238801332380F3E7032070BD00BF85
:10AB90007231002013B5074A044692E803006B4661
:10ABA00083E8030000221946204600F091FC02B021
:10ABB00010BD00BF9CE0020046DF7047421E00F15E
:10ABC0000F0312F8010F10B99A42FAD17047012011
:10ABD000704708B570B171B103780A78534013F02B
:10ABE000FE0F08D106220131013003F0E5F8B0FA7A
:10ABF00080F0400908BD0020FCE72DE9F04700F196
:10AC000001084F1C06460D4600F1110901F1110A19
:10AC100010223946404603F0CFF80446D0B94046EA
:10AC2000FFF7CCFF18B13846FFF7C8FF044651467E
:10AC30004846FFF7CEFF737C03F0FC03042B05D0DE
:10AC40006B7C03F0FC03042B18BF044604F00100E6
:10AC5000BDE8F0870024EAE730B585B004460D462C
:10AC600000F000FC02AA0DF10601072000F002FC32
:10AC700010B94FF6FF700BE0BDF80630AB42F1D0D3
:10AC800003992046FFF7B9FF0028EBD0BDF8060076
:10AC900005B030BD132810B5044602D94FF6FF7039
:10ACA00010BDFFF7DFF90028F8D00A20014B44431C
:10ACB000185BF5E774310020132838B504460D46BB
:10ACC00002D943F2020038BDFFF7CCF90028F8D0D2
:10ACD00006480A2303FB040050F8023F2B608388D8
:10ACE000AB808379AB710020EDE700BF74310020A9
:10ACF0004FF6FF7398422DE9F04105460CD00C4FFA
:10AD000000244FF00A0808FB04F3A6B2DB5BAB4259
:10AD100005D00134142CF6D14FF6FF7604E030460E
:10AD2000FFF7A0F90028F4D03046BDE8F08100BF5D
:10AD300074310020038843B9821C00F10A0312F821
:10AD4000010B10B99A42FAD170470120704710B533
:10AD50000446FFF7EFFF58B122880B889A4208D1CA
:10AD600008220231A01C03F027F8B0FA80F0400955
:10AD700010BD0020FCE71FB5044600F073FB02AADB
:10AD80000DF10601072000F075FB10B94FF6FF70BA
:10AD900007E0039920464631FFF7D9FF18B1BDF807
:10ADA000060004B010BD039920462A31FFF7CFFFFB
:10ADB0000028E4D0F3E7000013289FBF0A2358437C
:10ADC000014B1952704700BF7431002038B5054659
:10ADD000FFF78EFF0446284600F0AAFD38B9132C71
:10ADE00005D80A235C43024B4FF6FF721A5338BD55
:10ADF0007431002070B58CB014466A460D4600F1DF
:10AE00001003164613F8011D02F8011B9842F9D1F0
:10AE10000D22002104A803F02BF82B788DF81F30A9
:10AE20006B788DF81E303046AB788DF81D30FFF70B
:10AE3000C3FE9DF82F3023709DF82E3063709DF86F
:10AE40002D30A3700CB070BD30B5037803F0FE0355
:10AE5000042B85B004460D4618D1411C032201A8DD
:10AE600002F0DDFF0322211D03A802F0D8FF02AA91
:10AE700003A92846FFF7BEFF032202A901A802F09A
:10AE80009BFFB0FA80F0400905B030BD0020FBE721
:10AE900030B50388102B93B04ED1041D0FCC07ADF5
:10AEA0000FC50FCC0FC594E807009DF8203003F0C4
:10AEB000FE03062B85E8070009D000F0D3FA9DF8C1
:10AEC0002030032B4FEA530204D9022A3DD04FF61B
:10AED000FF7310E002AA0DF10601072000F0CAFA84
:10AEE0000028F4D0039908A81131FFF772FE00285A
:10AEF000F0D0BDF80630BDF81C4018480A22624365
:10AF0000811883529DF8262008980A724FF6FF7226
:10AF1000C1F802009342BDF82400C8800CD0ADF8FF
:10AF20000C3002A80023ADF80A408DF8083000F07C
:10AF300007FE02A8FFF7A8FB13B030BD039908A8CD
:10AF40000131FFF781FF0028D3D102AA0DF10601DC
:10AF5000072000F08FFA0028F0D1B8E77431002004
:10AF600090DF7047A5DF7047B5DF70471FB500233E
:10AF7000ADF80810ADF80A106A4602A903930093D1
:10AF8000ADF80430FFF7ECFF05B05DF804FB78B1D5
:10AF90004FF0171303601B2303711723C380038132
:10AFA00041F61B32002301614381828118467047BC
:10AFB0000E20704713B5034680880C4698B91A884E
:10AFC000242A75D011D8112A52D0232A7DD0102AD4
:10AFD0002BD0A37A3BB1E1880020FFF7C3FF10B963
:10AFE0004FF48073638102B010BD3A2A48D0552ACD
:10AFF000EFD1DB88C988A072172B38BF17238B428B
:10B0000028BF0B462381FFF7AFFFE37A002BE0D187
:10B010002369002BDDD040F6772200922289ADF81B
:10B020000420694620469847D3E7DB7B0A790A73F8
:10B03000012B13D0022B14D0E18823898B4205D237
:10B040000020FFF78FFF70B90123E372217B637B40
:10B050008B42BED20020FFF789FFBAE70B88E3805E
:10B06000EAE74B88FBE7112804BF0123A372EDE751
:10B070001723CB800B8141F61B3348818B81A8E7D6
:10B080005B89CA88934228BF1346172B0A6938BFC9
:10B0900017230B814AB1C97A39B140F67721009163
:10B0A000ADF804306946204690470023638190E75D
:10B0B0001A7A0B694A73002B8BD04DF67A218DF8E2
:10B0C000050000918DF80420ABE7197A237B9942A3
:10B0D00028BF1946BFE7B0DF704766DF704710B57D
:10B0E000002104464088FFF7F8FF034608B92372A1
:10B0F00010BD112801D10123F9E76368BDE81040B4
:10B10000184760B159B10378DE2B0AD00B68436051
:10B11000DE2303704FF6FF734380002070470E203C
:10B1200070470820704728B10378DE2B04D1418096
:10B13000002070470E20704708207047F0B5054684
:10B1400085B00C46F1B1E8B10B78DE2B1AD18288BC
:10B150004B889A4204D10B7A13B10846FFF7BFFF20
:10B160002B88112B32D0512B0ED0012B0AD12B7AE8
:10B17000012B07D1A9886288914203D1237220460E
:10B18000FFF7ADFF05B0F0BDAE886388B342F9D1DB
:10B19000AF79022FF6D1AD7B2B1F022BF2D8002105
:10B1A0001022684602F064FE052D14BF4FF4C073F0
:10B1B0000023694630468DF80070ADF80430FFF783
:10B1C0008AFF0028DED063689847DBE76388AA8897
:10B1D0009A4204BF4FF6FF736380D3E7012804D07F
:10B1E000043805288CBF0020012070474FF6FF73FC
:10B1F000438000F083BA00002DE9F041214E8AB06F
:10B20000002108226846317002F032FE4FF6FF70CE
:10B2100000F062FC4FF6FF78044648F209674445A7
:10B2200013D0A4F58045ADB26A4602A92846FCF7C2
:10B23000E5FAB8420CD02846FCF778FA48F20763E2
:10B24000984205460CD1012333700AB0BDE8F08165
:10B25000204600F0E3FB204600F03EFC0446DEE71B
:10B26000002DF2D0142200210DEB020002F000FEAE
:10B27000072305A88DF81430ADF818400795FFF79F
:10B28000B5FFE2E74432002070B5044686B01426CC
:10B290003246002101A802F0EBFDA0892378304D51
:10B2A00000F5804080B2042BADF808003DD008D8EE
:10B2B0005A1E022A12D92B780BB1FFF79DFF06B058
:10B2C00070BD052BF7D16368002B44D113238DF893
:10B2D00004304FF6FF73ADF808301DE043F6FE76FC
:10B2E000B042E18904D901F5804292B2B242E2D87B
:10B2F000DA1E534253418DF80D30A36804936368FE
:10B300008DF80C1063B908238DF804309DF81430C3
:10B3100043F001038DF8143001A8FFF767FFCAE777
:10B3200009228DF804200593F6E743F6FE73984250
:10B33000C1D8E389002BBED163683BB90A238DF8DD
:10B34000043000F06BFB01232B70E5E70B228DF836
:10B3500004200393F7E78DF804600393B9E700BF77
:10B360004432002073B504460D46164600210822DB
:10B37000684602F07DFDA5F58041A4F580406B464E
:10B38000324689B280B2FCF71FFA002818BF0520A8
:10B3900002B070BD30B5174889B0FCF749F820BB42
:10B3A000FCF75CF8044610BB00F018FB08222146AD
:10B3B00003A802F05DFD03AA05A94CF20700FCF703
:10B3C00010FA10B1204609B030BD01A905A8FCF75C
:10B3D00057F9019B9D8805F58045ADB205A8FCF79E
:10B3E00075F9284600F002FBE5E70324EAE7862426
:10B3F000E8E700BF89B20200F0B5FF2887B0044635
:10B400000E4615461F462BD80846FFF7E7FE38B311
:10B4100003AA2046FFF7A6FF18B10524204607B06F
:10B42000F0BD01A903A8FCF72BF904460028F4D1CC
:10B43000019BAE705E8802992E8027B9696003A8CF
:10B44000FCF744F9EAE73F686868B600B74228BFEE
:10B4500037463A4602F0E3FCBE42F0D90C24DDE761
:10B460000724DBE702480822002102F001BD00BFEB
:10B470003C320020F0B587B006460F461546FFF770
:10B48000ADFE0446F8B1A6F58040104A03A980B28B
:10B49000FCF7A7F918B10024204607B0F0BD01A9B8
:10B4A00003A8FCF7EDF80028F5D1019BAE705A888F
:10B4B0009B882A8003F58043029A6A6003A83B8038
:10B4C000FCF704F9E8E70124E6E700BF3C3200207E
:10B4D00030B5FF2887B003460C4615463CD889781E
:10B4E0000846FFF77BFE002836D0A3F58042ADF872
:10B4F0000020A1F58042ADF8022062680192228806
:10B500000292184603AAFFF72DFF0528694603A8F3
:10B5100012D1FCF7FFF80446A8B1A0F50644023C9E
:10B520000B2C1BD80B2C19D8DFE804F014181818B2
:10B53000091A18181818181AFCF7F0F8EBE78624FF
:10B54000204607B030BD002DFAD0294603A8FCF7ED
:10B5500062F9F5E71024F3E70724F1E70324EFE7A6
:10B560001124EDE74FF6FF7000F040BAFF2808B550
:10B5700005D800F041FAFFF73FFE002008BD072084
:10B58000FCE700F061BA00F08DBA00F0A5BA000047
:10B590000A68084B70B50C25032A01D9002006E083
:10B5A00005FB02F4E65A864202D10A60181970BD02
:10B5B0000132F1E79C33002037B500230D460446E5
:10B5C000019301A9FFF7E4FF38B18378AB4206D1BC
:10B5D000837A9B0703D143680BB903B030BD019B4D
:10B5E0000133019301A92046ECE710B5044600F0B1
:10B5F0009BFB204601F086FB2046FFF705FA20461C
:10B60000BDE81040FFF75CB870B50E4E044600254B
:10B61000237AAB420DD84FF6FF732380A37000232B
:10B6200063604FF47F432381A37A23F00303A37263
:10B6300070BD617A2944C9B2304600F0B7FD0135CA
:10B64000E6E700BF8C33002013B50023CDE90033BB
:10B65000417A83788DF802300446264800F08DFD4B
:10B6600060B3237AA2788DF8022003EB83039B005A
:10B67000ADF80030531E0190072B08D8DFE803F027
:10B6800016070707071604181423ADF800302246E2
:10B69000694632F8040BFFF71BFF112815D00BD8B1
:10B6A00070B1072818BF032002B010BD0123ECE7DA
:10B6B000838809339B08E8E7862811D00320F3E745
:10B6C000A37A23F00303A372EEE7A37A23F0030324
:10B6D00043F00203A372084B01221A700020E3E733
:10B6E000A37A23F0030343F00103A372024B012268
:10B6F0001A70D9E78C330020883300202DE9F047F9
:10B70000384EC16886B00546324600233746506839
:10B7100081421BD10C2000FB03702B78DFF8C8801E
:10B72000092B1AD0132B51D0082B51D16C7A002C35
:10B730004ED100284ED0FFF767FF2846FFF755FF90
:10B7400098F800309BB906B0BDE8F0870133042BB0
:10B7500002F10C02DBD10020DFE76C7A002C37D13C
:10B76000002837D0837A446043F0020383720025B7
:10B7700088F800504FF00C094FF0010A09FB0573DF
:10B780009B7A9907C3F3400201D4DB0724D588F8DC
:10B7900000A002B904B33046FFF756FFE0B14FF600
:10B7A000FF73ADF806300C235D4386287B5BADF854
:10B7B000083016BF03900623072301A80CBF8DF89D
:10B7C00004308DF80430FFF710FFBCE70124B4E724
:10B7D0000024B2E70446B0E70135042D06F10C065B
:10B7E000CCD1B0E79C33002088330020154BF7B54F
:10B7F00000221E464FF6FF754FF0FF0C0C27104637
:10B8000007FB02641D809D7083F809C0A17A013294
:10B8100021F00301042AA17203F10C0303F8040CC4
:10B8200043F8080CECD15023CDE900230649074B1F
:10B8300007484FF4A07200F08CFC002818BF0320CA
:10B8400003B0F0BD9C33002048320020CC330020F0
:10B850008C3300200023FFF7CFBD00002DE9F0411D
:10B8600080460E4614461F46002B4ED0CB1F012BA0
:10B870004ED8531E032B4BD8FFF79EFE054610BB38
:10B88000FF214FF6FF70FFF797FE0546C8B1A0F8FD
:10B89000008086706B7AFF2B1AD11F48214600F07A
:10B8A0009DFCFF2868722DD14FF6FF732B8000237B
:10B8B0006B604FF47F432B81AB7AA87023F00303B6
:10B8C000AB72112022E0037AA342E3D00F201DE0E7
:10B8D0004FF00008697A10482C7200F04EFCC8B195
:10B8E00004EB84042401A4B2A408BE7078603C80F8
:10B8F000B8F1000F04D0082E02D1A400063C8480C9
:10B90000002003E04FF00108E4E70E20BDE8F081DD
:10B910000720FBE70320F9E78C33002008B5FFF789
:10B920004BFE18B1FFF770FE002008BD0520FCE7B4
:10B9300013B500230446019301A9FFF729FE30B98E
:10B940002046FFF713FE50B1072807D107E08178A2
:10B950002046FFF7E3FF20B1052802D0032002B004
:10B9600010BD019B0133019301A92046E5E7CB1FE0
:10B97000012B70B506460C46154601D9072070BD4F
:10B980001046FFF7FEFD0028F8D021463046FFF7AD
:10B9900013FE28B184700580BDE87040FFF754BEE7
:10B9A0000520ECE710B54FF6FF7304469C420846AD
:10B9B0000AD14FF48071FCF789F884B2B4F5807F26
:10B9C00009D14FF6FF7406E0FF2CFAD82146FCF7A8
:10B9D0005CF80028F5D1204610BD00000248402246
:10B9E000002102F045BA00BFD03300200149FFF723
:10B9F000D9BF00BFD03300204FF6FF73984210B577
:10BA0000044606D00449FFF7CDFF231A5842584197
:10BA100010BD0020FCE700BFF0330020FF2807B571
:10BA200001460AD801900648FCF73DF801990548FF
:10BA300003B05DF804EBFCF736B803B05DF804FB27
:10BA4000D0330020F0330020FF28014602D80248FE
:10BA5000FCF733B800207047D0330020FF280146A0
:10BA600002D80248FCF729B800207047F0330020C4
:10BA70004FF6FF73984270B518BF441C0E4614BFB2
:10BA8000A4B20024A5B2FF2D02D94FF6FF7506E03F
:10BA900021463046FCF711F801340028F2D0284640
:10BAA00070BD000070B50B490A4EFFF7E1FF4FF67D
:10BAB000FF750446AC4201D1204670BD2046FFF719
:10BAC000CDFF0028F8D020463146FFF7D1FF0446CD
:10BAD000F0E700BFD03300200149FFF7C9BF00BF26
