:020000022000DC
:1070000000000420757302005D7302005F730200CC
:1070100061730200637302006573020000000000E8
:107020000000000000000000000000006773020084
:1070300069730200000000006B7302006D730200B0
:10704000099502006F730200419702005D980200EB
:10705000B99B02006F730200C1950200859C02007B
:107060006F7302006F7302006F7302006F73020090
:107070006F7302006F7302006F7302006F73020080
:107080006F730200217A02006F7302006F730200B7
:107090006F7302006F730200BDE902006F7302009C
:1070A0006F7302006F730200FDA102006F73020094
:1070B000DD9702006F730200000000000000000076
:1070C0006F730200ED970200FD9702006F730200DC
:1070D0006F7302006F7302006F7302006F73020020
:1070E0006F7302006F7302006F73020000000000F4
:1070F000000000000D980200000000006F73020005
:10710000000000000000000000000000000000007F
:10711000000000000000000000000000000000006F
:10712000000000000000000000000000000000005F
:10713000000000000000000000000000000000004F
:10714000000000000000000000000000000000003F
:10715000000000000000000000000000000000002F
:10716000000000000000000000000000000000001F
:10717000000000000000000000000000000000000F
:1071800000000000000000000000000000000000FF
:1071900000000000000000000000000000000000EF
:1071A00000000000000000000000000000000000DF
:1071B00000000000000000000000000000000000CF
:1071C00000000000000000000000000000000000BF
:1071D00000000000000000000000000000000000AF
:1071E000000000000000000000000000000000009F
:1071F000000000000000000000000000000000008F
:10720000354936480A1A02D0072291438D4634493F
:1072100034480A1A06D00722914381F309880222D2
:1072200082F3148830483149314A00F044F831483B
:107230003149324A00F03FF831483249324A00F0D1
:107240003AF832483249334A00F035F83248334987
:10725000334A00F030F833483349344A00F02BF811
:1072600033483449344A00F026F83448344900227F
:1072700000F02CF833483449002200F027F8334856
:107280003349091A082902DB002202604160314AB1
:1072900090471F481F49884205D00268043003B454
:1072A000904703BCF7E700208646EC46002000210B
:1072B000294A9047FEE7884207D0521A05D0037842
:1072C00001300B700131013AF9D17047884202D088
:1072D00002700130FAE770470000042000E003204C
:1072E000000004200000042014F2020034230020D7
:1072F00064230020D0730200D07302002EF002003D
:1073000014F202003423002034230020D8F00200BD
:10731000D8F00200D8F00200D8F00200D8F0020045
:10732000D8F00200D8F00200D8F0020014F20200F7
:1073300044F2020064230020642300206423002020
:10734000C8300020C8300020C8300020C8300020DD
:10735000C85000209D73020051A20200FEE7FEE724
:10736000FEE7FEE7FEE7FEE7FEE7FEE7FEE7FEE7F5
:1073700000F002B8FFF7FCBF0F484FF00701884349
:1073800085460E4880470E48016841F4700101604F
:10739000BFF34F8FBFF36F8FFFF732BF09480A4922
:1073A0000A4A884207D0521A05D0037801300B7080
:1073B0000131013AF9D170470000042085910200A3
:1073C00088ED00E0C4F002002023002034230020D8
:1073D0001FB50021039001AA44F20100CDE901117B
:1073E00000F004F805B05DF804FB000072B6094B2C
:1073F0001B68DB0700D500BEBFF34F8F0649074B64
:10740000CA6802F4E0621343CB60BFF34F8F00BF42
:10741000FDE700BFF0ED00E000ED00E00400FA053C
:10742000D0E90223D1E90201994208BF90422CBF62
:10743000012000207047000008B50B4800F0D9FA81
:107440000A4B0B49D3E900231218D1E9000143F19B
:1074500000038B4208BF824203D212F1807243F1D3
:1074600000031046194608BD34230020682300207D
:10747000E023002037B505460C460A4801A900F074
:107480000EFB60B10570446001A9064800F031FBB5
:1074900018B1054800F0B2FA002003B030BD042056
:1074A000FBE700BFCC2300203423002038B5184B65
:1074B0001B78044613B90025284638BD0028FAD0A9
:1074C000037F03F0FF05002BF5D0FFF7B5FFD4E9EC
:1074D0000223994208BF904214D3236903B923774A
:1074E000D4E90530984721690029E4D0237F03F0CF
:1074F000FF05002BDFD0D4E90223521843F100032B
:10750000C4E902230348214600F094FCD4E700BFFD
:1075100070230020D8F0020013B50023ADF804302A
:1075200006238DF806300F490F480823582200F033
:1075300081FA044698B90D4A0D4801A900F062F994
:10754000044660B90A48012100F036FA0123094ACD
:107550000748194600F098F9074B01221A70204697
:1075600002B010BD74230020CC230020DD75020082
:1075700034230020FFFF7F00702300203AB103680E
:107580005A614A1E5142514119610020704707203B
:10759000704738B5037F04460D4683B98261FFF713
:1075A0004BFF2369401941F10001C4E9020103B115
:1075B000256121460020BDE83840FFF75BBF002071
:1075C00038BD0023014603770120FFF753BF0000B9
:1075D000014800F00EBA00BF342300202DE9F04F1F
:1075E00085B0804600F0F0F940B15A4AD2E9003146
:1075F00013F1807341F10001C2E9003100214046DE
:1076000000F0F1F938B1544E336823B13068FFF718
:107610004DFF002333600121404600F0E4F920B122
:10762000FFF70AFF4D4BC3E900014D484A4F4D4E4D
:10763000DFF8389103A900F06CFA002845D1DFF893
:107640002491454EDFF828A1484600F009FC336834
:10765000002875D07BB13368D0E90201D3E9022359
:10766000994208BF90422DD233681B7F1BB131680D
:10767000484600F0DFFB484600F0ECFBD0E902B3DF
:1076800007460193FFF7D8FE019BBBEB000463EBB9
:107690000105012C75F1000345DBB4F5D40F40D38F
:1076A000FFF796FF304A02444FF41603002150467C
:1076B00000F00AF900283ED1336813B9404600F0C3
:1076C000DBF8376005B0BDE8F08F0378012B1DD0E3
:1076D000022B09D14FF0000A304600F0BBFB002816
:1076E00034D080F81CA0F7E73BB941680B7F23B981
:1076F00001230B77304600F09DFB03A9184800F0EA
:1077000033FA03A9164800F004FA96E741683B688B
:10771000994202D100233B60EFE7304600F0A3FB23
:10772000EBE7BA68C0E70021504600F052F938464E
:10773000FFF7BCFE01E00D28F9D00023336083E79A
:10774000002BBFD1404600F09BF8BBE7012389F82E
:107750000030D2E768230020E8230020E023002047
:10776000CC230020D8F00200FFFF69007023002026
:107770003423002070B5EFF3108672B60C4A94687B
:1077800001239CB993600B4B0B4DD3F8801029401B
:107790001160C3F88050D3F8841051604FF0FF326D
:1077A000C3F88420047006B962B670BD0370FAE7AE
:1077B000EC23002000E100E0FC06FFBD084B9A68C6
:1077C00010B55AB150B9EFF3108172B6054A1C6872
:1077D00014605C685460986001B962B610BD00BF67
:1077E000EC23002000E100E0435882B03BB10023CD
:1077F000435043580193019B012002B07047184643
:10780000FBE7000070B5184C437944F82320174C6F
:1078100004EBC3031B792BBB03680A88C3F8082554
:1078200090F904508B7802795B01002DDBB214DBF8
:107830000F494E1986F8003301236D0902F01F022B
:1078400003FA02F241F82520437904EBC302012137
:1078500044F833001171002070BD064902F00F0298
:107860008B54F1E70820F7E700240020F8230020DC
:1078700000E100E014ED00E0036801221A607047A7
:10788000036801225A60704773B501F15005AD00DD
:107890000068ADB24FF480348C400026C0F8084335
:1078A000C0F84843465101F5A8714559019522F0A9
:1078B0007F42019D40F82120C0F844430BB1C0F83D
:1078C000044302B070BD00002DE9F74F0D4622F0D1
:1078D0007F4402684FF4803705F150068F408046A0
:1078E000B60002EB8500C2F84873B6B2C2F808735E
:1078F000D2F8041599464FF0000BD0F84035C0F887
:10790000401542F806B05B1A9259009223F07F436B
:10791000012B009A4FEA850A0CD1264B4FF4806068
:1079200043F001039847D8F8003043F806B09B595C
:107930000193019BD8F80010D1F80465C1F8447395
:10794000A31B23F07F43012B1CD11A4B05F5A8750F
:10795000013443F0010341F825404FF4806098471B
:10796000D8F80030D3F804359E4209D1D8F8003059
:107970000020C3F84473C3F8047303B0BDE8F08F6C
:107980000D20FAE78A44C9F1FF13CAF84045D1F83F
:107990000405221A013A22F07F4203F57F43934205
:1079A000EED3002AE2D10134CAF84045D1F80435BB
:1079B0009842DAE7F0F0020003680222C3F8442399
:1079C00009B1C3F80423704700684FF48271FFF7D0
:1079D0000BBF4FF4803303FA01F10368C3F8481377
:1079E000C3F80813704750318900006889B2FFF767
:1079F000FBBE0368D3F804057047000090F904301B
:107A0000002B09DB5A09012103F01F0301FA03F3DC
:107A10004032024941F82230704700BF00E100E0E7
:107A2000024B034A1B681068184700BF002400205F
:107A3000F823002010B561B1B2FBF3F403FB14246A
:107A4000A4B244B9C0E9001484608281C381204695
:107A500010BD0E20FCE70920FAE782B050E8022FA3
:107A6000C188B2EB324F4FF0000317BF92B241EA28
:107A7000014142EA014104E04268B2EB324F08BFE3
:107A8000012340E80212002AE8D18DF807309DF862
:107A90000730002B0CBF1120002002B0704737B513
:107AA00050E8013F9DB2C48925448489A54228BF7E
:107AB0002D1B0489A54202BFBFF32F8F002207E0D0
:107AC000C5EA030540E80154002CE9D14FF001025A
:107AD0008DF803200193019B9DF803200B6002F0B9
:107AE000FF0322B10B880068184403B030BD18466C
:107AF000FBE70A884B889A4209D150E8012FC2EA75
:107B0000024240E80123002BF7D1012070470020FA
:107B1000704737B550E8023F1FFAA3F5C488A54265
:107B200002BFBFF32F8F00220DE0C4892544848952
:107B3000A54228BF2D1BC3EA054540E80254002C8E
:107B4000E8D14FF001028DF803200193019B9DF8CD
:107B500003200B6002F0FF0322B14B880068184439
:107B600003B030BD1846FBE70A884B889A4209D11A
:107B700050E8022FC2EA224240E80223002BF7D14C
:107B8000012070470020704701F01F024B090121BE
:107B9000914000EB830000F065B84B0910B501F08F
:107BA0001F040121A14000EB830000F04FF8E040EA
:107BB00000F0010010BD01F01F0301229A404B09A3
:107BC00000EB8300D14300F059B84B0901F01F01CD
:107BD00050F82300C84000F0010070472DE9F0473D
:107BE0004F1E7F0980460E460137002558F8254074
:107BF00008EB8509E44394FAA4F4B4FA84F44FEA58
:107C0000451A202C06D10135AF42EFD83446204624
:107C1000BDE8F0875444A642F5D921464046FFF717
:107C2000BCFF0028F3D0D9F80040E44394FAA4F450
:107C3000B4FA84F4E5E710B5034653E8000F0A46AA
:107C400043E8002494F0000FF7D110BD10B50346AF
:107C500053E8000F40EA010243E8002494F0000FCB
:107C6000F6D110BD10B5034653E8002F42EA0100DB
:107C700043E8000494F0000FF6D110BD10B50346A0
:107C800053E8002F02EA010043E8000494F0000FDB
:107C9000F6D110BD10B5034653E8000F00EB01020A
:107CA00043E8002494F0000FF6D110BD10B5034650
:107CB00053E8002F02EB010043E8000494F0000FAA
:107CC000F6D110BD10B5034653E8002FA2EB01001A
:107CD00043E8000494F0000FF6D110BD0121FFF736
:107CE000B5BF33DF704741DF70470000064B10B56A
:107CF00000241C70054B1C60BFF35F8F04490548CE
:107D000000F082F8204610BD0D2400201024002031
:107D1000F8F002000424002007B500230DF107004D
:107D20008DF80730FFF726FDF1EE103A23F09F03A0
:107D3000E1EE103ABFF35F8F094B4022C3F8842174
:107D40009DF80700FFF73AFD06F01EFE20B1FFF791
:107D5000CAFF03B05DF804FB20BF40BF20BFF8E7B7
:107D600000E100E070B5224D044601212846FFF7EE
:107D700062FFBFF35F8F2E4638B9042C0AD01D4B2B
:107D80001A781AB1BFF35F8F286070BD1A4A147059
:107D900001221A70194C184D636828787BB9023893
:107DA000012813D8BFF34F8F1549164BCA6802F448
:107DB000E0621343CB60BFF34F8F00BFFDE71B684A
:107DC000984788B1204600F029F8E5E706F0DCFD89
:107DD00008B1FFF786FF4FF080430122C3F800256A
:107DE000BFF34F8F20BFFDE7BFF35F8F3060CCE75D
:107DF000102400200D2400200C2400200424002046
:107E000000ED00E00400FA050B684A684360934205
:107E100008BF0023016008BF43607047436843B157
:107E20000268916852680B449342436004BF002388
:107E30004360704770B5446806460D46206818B127
:107E4000B3682946984718B923682B60256070BD30
:107E50002468F3E74368186808B102681A6070473D
:107E60004368186870474368186800B970478842CB
:107E700003D102681A600120704703460068F4E7E6
:107E800070B5064D0646002455F8043B0BB130464C
:107E900098470134042CF7D170BD00BF2024002086
:107EA000033080B240F2FE33984230B51FD8134BF6
:107EB0001A783AB91C895D892C440444A4B2B4F5FB
:107EC000806F0AD91A7DAAB99A8BDC8B22440244AE
:107ED00092B2B2F5806F0DD801220A8014461422A6
:107EE00002FB04335A8910445881002030BD48F207
:107EF0000860FBE748F20660F8E700BF5424002062
:107F00000B4A0C4B5188142000FB0131CB6833B96C
:107F10000420496810700122074800F065BF074936
:107F20000523137002238B80012209680023F3E7E5
:107F30003824002054240020202300201C25002069
:107F400007B5002305490093054A09680548082339
:107F500000F01CFF03B05DF804FB00BF1C250020EF
:107F600010F102002023002007B5002301460093F2
:107F7000034A0448082300F009FF03B05DF804FB3E
:107F800008F102002023002013B500230C460093C3
:107F90000146084A0848042300F0F8FE38B90749AA
:107FA000142303FB04140123237402B010BD48F210
:107FB0000D60FAE704F10200202300205424002081
:107FC00037B50A480A4B42689C88196853880325CC
:107FD000033305709BB2002000909B0001EB8401ED
:107FE000044800F0D3FE03B030BD00BF38240020A9
:107FF0001C2500202023002010B501460448FFF76F
:108000004EFD1C220446002106F0AEFF204610BDA6
:108010000825002068B10268084B9A4209D14068DF
:10802000074B984207D00133984214BF0320012028
:108030007047032070470020704700BFDEC0ADDEF0
:10804000FE011EF14388033300EB830399420BD3F7
:1080500082884FF6FF739A4208D0038833B1806854
:10806000431C584258417047022070470120704716
:108070002DE9F0410D460223154F2B80164600F5E1
:10808000805100F108044FF001088C420ED22368A1
:1080900001330BD02046FFF7D5FF48B10EB186F86B
:1080A0000080022809D14FF480632B80BDE8F08165
:1080B000A3683A68934200D93B602B8862880333F7
:1080C00013442B806388033304EB8304DDE700BF94
:1080D0004C24002038B5144B14220D4602FB00300E
:1080E0002B68446804F58051A3B15C88033403EB2A
:1080F00084048C4215D22368013312D02046FFF746
:10810000A1FF012808D002280BD00028F1D12C6053
:10811000012038BD0834ECE76388033304EB8304A3
:10812000E7E70020F5E700BF54240020426873B55C
:1081300004460D466AB3244BD9688A4229D31B6989
:108140009A4226D812F0030323D1204900890989D5
:1081500088421ED12068916888421AD11C4948681B
:10816000824203D900F5805082420DD389698A4248
:108170000CD901F580518A4208D201222A80B3FA33
:1081800083F0400902B070BD1A46F7E748F2096370
:10819000F5E700232B801E460196288801A9FFF7EA
:1081A00099FF30B92B8801339BB2012B2B80F3D977
:1081B000E8E7019B226899689142EED16360034B26
:1081C0001B892381DEE700BF202300203824002004
:1081D000542400202DE9F8431C461D4B1B7806460D
:1081E0000F46154673B382B37CB3DFF86C804FF053
:1081F0001409A388012B02D948F2096020E009FB89
:1082000003F318F803302BB9A0882146FFF762FF6B
:1082100020B92060A3880133A380EAE723681EB158
:10822000998832889142EFD11FB119883A889142DA
:10823000EAD19A68C5E90023064B1B892B810020EF
:10824000BDE8F88348F20160FAE748F20460F7E716
:1082500030240020382400205424002008B5074B87
:108260005888191DFFF736FF18B1BDE80840FFF721
:10827000A7BEBDE80840FFF743BE00BF382400207A
:108280002DE9F04FA44FDFF8B49289B00646B84606
:108290003B6823B9A1484946FFF73BFC3860D8F852
:1082A000005029784B1E052B07D8DFE813F0220079
:1082B0007C007C000E010E01660148F20E6414225F
:1082C000002103A806F050FE41F61D539C4208BF52
:1082D0000024D8F8003004941A78013A052A00F2F4
:1082E000F881DFE812F0E401E80108021802240234
:1082F0002E022EB18A4B00225A604FF40644DEE76C
:108300002B79032B1DD8DFE803F015022B368549A6
:108310000B78022B08461AD00B7D022B4FF001037D
:1083200017D114225343C2180020C8545068FFF7D5
:108330001BFE03E001232B71FFF702FE002800F073
:10834000BE80774B00225A6048F20D64B7E70023E5
:10835000E7E7734A13700023536041F61D54AEE7FC
:1083600071497248002302222B718A800968012218
:1083700000F03AFDE2E76C4C00262E712068694D52
:10838000FFF7F2FD6A4BD4F800C05A881423534318
:10839000EA18EE5451682160A188C2F804C0118126
:1083A0000222A280CAE7B5F814A0AA7DDFF874B152
:1083B000AEB1022AEB8806D9142101FB0AB1DA1CFE
:1083C000088902440A81142202FB0ABAC3F57F43DA
:1083D000BAF80A20FD331344AAF80A308DE71423B3
:1083E00003FB0AB318895C6804EB8004062A69D889
:1083F000DFE802F0274E36441D5A040041F61D54B2
:10840000AA7DEB88022A06D9142101FB0AB1DA1CE5
:10841000088902440A81142202FB0ABAC3F57F4389
:10842000BAF80A20FD331344AAF80A3047E7414856
:10843000414900234360AB690360FFF777FE0028E2
:108440005BD00223AB75002300930423EA18214676
:10845000364800F09BFC002831D048F20D64CFE78D
:108460002B69002B14BF03230123AB75002300935A
:1084700005F10C02042304F10801E9E70123AB75BF
:108480000022EB8800922A699B0004F10C01DFE7CF
:1084900003290CBF05230623AB7500230093042397
:1084A00005F10802E118D3E70623AB75224B1988C2
:1084B000204B5868FFF768FD04460028A0D109B09A
:1084C000BDE8F08F48F20E649AE7002E7FF415AFF6
:1084D0002B79012B34D0022B3FF43FAF002B7FF4DC
:1084E000ECAE02232B710DF10A01EB68039303A894
:1084F000CDE90466FFF71AFE10B948F20964DEE61A
:108500000498BDF80A108388EB8003882B81FFF75D
:108510003BFD044627E000BF502400200825002032
:1085200030240020542400201C250020202300207B
:10853000382400201424002028250020482400206E
:10854000814B03AA3146A81DFFF744FE7E4B04462B
:1085500068B999880498FFF717FD044648F2096343
:108560009C423FF4FAAE002C7FF4A9AEA7E70822A4
:108570003146184606F0F8FCF0E7002E7FF4BDAE59
:10858000724B1A7BB2B11E731A78013A062A3FF673
:1085900094AE01A151F822F04386020069860200E0
:1085A000878602008D860200BB820200938602004D
:1085B000A58602001A78072AE6D801A151F822F010
:1085C000E185020089850200898502000786020094
:1085D0001B8602003F8602003F86020003860200DF
:1085E0001A895B4901321A8100225A801A730A786B
:1085F000B2FA82F252099A720A7DB2FA82F25209F2
:10860000DA72012207E0534958688A8840880332A9
:1086100002448A8002221A70B6E74D4C5A884D49AE
:10862000142505FB02420868546850608888108150
:1086300002200C608880002111740622EBE70722DB
:10864000E9E79A7A32B9DA7A8AB900221A705A803E
:108650005A6082E63E4900229A72CA68002AF2D124
:10866000097C0029EFD05A80FFF7F8FD51E700227E
:10867000DA72374A116A0029E7D192F82420002AD9
:10868000E3D00122EFE7FFF79BFC42E7FFF738FC5E
:108690003FE72F4A5B88142101FB03235868FFF74B
:1086A00063FC36E700225A60FFF74AFC31E70023FB
:1086B0008DF80C300DE001228DF80C201A89ADF8F0
:1086C00018209A88DB680593ADF81A2000238DF8EE
:1086D0001C3003A8FFF7D4FB002649461E48C8F803
:1086E0000060FFF741FA1D480121FFF7EBFA00286F
:1086F0007FF4CEADE3E602228DF80C201A89ADF8A6
:1087000018209A88ADF81A20DA689B7D05929A1F86
:1087100053425341DBE703228DF80C20DA88ADF891
:1087200018201A89DB68ADF81A200593D1E70422D6
:108730008DF80C20DB88ADF818300023ADF81A3026
:10874000F3E70523B4E700BF2C25002038240020E0
:10875000542400201C250020082500201825002076
:108760004068FFF78DBD000008B505480121FFF7FF
:1087700091FA18B9BDE80840FFF782BD08BD00BFF7
:10878000182500202DE9F3419846374B1B78064603
:108790000D46002B5CD000295DD009884FF6FF7391
:1087A00099425BD06B88002B58D06B689B0758D1DF
:1087B0004AB92F890DF102013846FFF771FB30B13C
:1087C00002B0BDE8F08113885788ADF8023001A8E7
:1087D000FFF712FC044660B9BDF80230234A1421A9
:1087E00001FB032358890338C01B588148F20760F6
:1087F000E6E780F8008000238375BDF802308382AD
:108800006B68036101211A48FFF750FA2B88238116
:10881000B8F1030F6B88A38004BF0423A3754FF046
:10882000000508BF3368E06008BFA3611148E78016
:10883000658101A9FFF75DF936B1E36833600E4B3E
:1088400075601B89B5723381FFF78EFF0020B7E793
:1088500048F20160B4E748F20460B1E748F203600F
:10886000AEE748F20260ABE7302400205424002039
:108870004C240020082500203824002008B5034699
:1088800007480268042A08D00168064A42F82130E5
:108890000121FFF70BFA002008BD48F20B60FBE74F
:1088A00024250020202400202DE9F04F89B0142237
:1088B000002103A806F058FB794A137803F0FF0162
:1088C000009190463BB103A8FFF7DAFA002738463B
:1088D00009B0BDE8F08F101DFFF700FA0028F5D1B0
:1088E00040F6F8734FF080521B685C1C08BF6D4B5C
:1088F0006D4C08BF1B6811695269581C08BF02FB08
:1089000001F323616949A3F5405300222046E36047
:1089100000F02EFA019407460028D8D16449654832
:10892000DFF8A4B11C238C22FFF784F8BA463D4639
:108930004FF003093C46019BDE6856443046FFF782
:1089400069FB012862D0032817D000283DD15A497D
:108950004FF0140C0CFB04FC01EB0C0201F80C00B2
:1089600056600CF110020CF1080C0A4430466144C8
:10897000FFF77EFB45F0020545E03268531C02D04C
:108980004E4B9A4234D1321D06F5805110680130A9
:108990002ED104329142F9D1DBF800203AB90222FB
:1089A0000123CBF80060ABF8042000930BE0142205
:1089B0006243414B022099189854414A4E605480BA
:1089C00001340881A4B245F001050AF5805ABAF5D0
:1089D000405FB0D1B9F1010F98BF0025EDB2022D73
:1089E00003D0062D31D0002D39D148F20A676EE749
:1089F000314914226243881809F1FF394660032087
:108A000088541FFA89F90134A4B2DEE7009B6BB1E8
:108A1000294B14226243991802209854DBF8002055
:108A20004A60274A088154800134A4B200222549B3
:108A3000CBF800603046FFF71BFBBBF80420022A8E
:108A40000CBF042208221543BFE7012388F8003039
:108A500003A80023C8F80430FFF712FA37E702A88A
:108A6000FFF7CAFAC8B10123013D03700A2D09D8E6
:108A7000DFE805F006080608070807080F110F00D1
:108A80000023037102A90B48FFF733F8FFF76CFED0
:108A90001DE70323F5E70223F3E748F2076716E72C
:108AA00030240020141000102023002024F10200A4
:108AB0007C2400200825002054240020DEC0ADDEE8
:108AC00038240020202500201C25002073B50D46E9
:108AD0000446C8B1C1B10DF10601FFF727FBB0B1E3
:108AE0000C4BBDF806006668142202FB0030012121
:108AF0000C30FFF7DBF863682E600C336B600123EA
:108B0000A372002002B070BD48F20460FAE748F298
:108B10000960F7E75424002013B50446A8B10DF10D
:108B20000601FFF703FB98B10C4ABDF8063014218B
:108B300001FB0323DA6872B1A27A62B1DA6800201D
:108B4000013ADA60A07202B010BD48F20460FAE7A0
:108B500048F20960F7E748F20560F4E75424002082
:108B600002230022FFF70EBE18B103230022FFF7F5
:108B700009BE48F204607047114B1B7813B50446D8
:108B8000ABB14FF6FF73984214D001A8FFF734FA47
:108B900098B10523037001230371C48001A909481A
:108BA000FEF7A7FFFFF7E0FD002002B010BD48F27E
:108BB0000160FAE748F20360F7E748F20760F4E77C
:108BC00030240020082500200F4B1B7807B5A3B1E7
:108BD00001A8FFF711FA98B10623037001A90B4809
:108BE000FEF787FF0A4B1A780AB101221A73FFF7C2
:108BF000BBFD002003B05DF804FB48F20160F9E71B
:108C000048F20760F6E700BF302400200825002066
:108C10003824002007B5ADF80600ADF804100DF1BA
:108C2000060001A9FFF7D6FA03B05DF804FB07B50B
:108C30001346ADF806000A4600200DF10601FFF7C5
:108C4000C9FA03B05DF804FB07B51346ADF806009A
:108C50000A460DF106000021FFF7BCFA03B05DF8EB
:108C600004FB20B119B103680B600020704748F283
:108C7000046070472DE9F84F3B4B1B780446002BEE
:108C80006CD000286DD0DFF8E4A01222002106F09D
:108C90006BF9032323804FF0000BD04614274FF0CD
:108CA0000109DAF80410BAF80A50BAF80860084660
:108CB000FFF7B0F9032808BF2388628804BF03F1D7
:108CC000FF33238007FB0B832E44DB681344638050
:108CD00023891D4463892581B6B233446381C6F577
:108CE0008066A389B6B2B34201F1080538BFA681F8
:108CF00001F58051A94229D92B68013326D0284695
:108D0000FFF7A0F901280AD0022815D00028F1D1D8
:108D1000A3880133A3800AE04FF0010BC1E7E38889
:108D20000133E380E3896A8803331344E3816B886A
:108D3000033305EB8305DDE7E38884F81090013306
:108D4000E380E389491B03EBA101E1810AF1140AE5
:108D5000BBF1000FE0D00020BDE8F88F48F20160C1
:108D6000FAE748F20460F7E730240020542400209A
:108D70000B4610B4114628B123B103605DF8044BD3
:108D80001B6818470E205DF8044B70472DE9F04131
:108D900008B302B3D0F800E0BEF1000F1ED0FBB163
:108DA0004568D5F80480B3FBF8F508FB1535BDB967
:108DB00042EA010C1CF0030F14D1C568A94211D37B
:108DC0004D1EEC180569AC420CD8DEF80C40A446E8
:108DD000BDE8F04160470E20BDE8F0810820FBE7C8
:108DE0000920F9E71020F7E7F0B5D8B1D0F800C0B6
:108DF000BCF1000F18D0CAB14768D7F800E00EF1F7
:108E0000FF370F4214D1C768B94211D304694D1E10
:108E10000EFB0255A5420BD8DCF81040A446BDE875
:108E2000F04060470E20F0BD0820FCE70920FAE77B
:108E30001020F8E729DF704728DF704770B5036816
:108E40009E6886B004460D466EB114220021684625
:108E500006F08AF8A3680593237901952BB1012BBD
:108E60000DD06846B04706B070BD01238DF80030C4
:108E700023690293E368039363690493F1E7022390
:108E80008DF80030E3681B030293F5E7084670474E
:108E900000207047024B187A003818BF0120704735
:108EA000D0250020034B187A0122B0FA80F05A74C2
:108EB00040097047D025002008B510461A4606F034
:108EC0002AF8002008BD000008B51422002104483B
:108ED00006F04AF80348FEF7C0FD002008BD00BFB9
:108EE000D0250020C025002010B5094C094B436057
:108EF0002046FEF7F3FE40B905F046FD0649207412
:108F00001C2306488C22FEF795FD002010BD00BFF3
:108F1000D025002018F1020034250020C0250020B3
:108F200070B5244C244E237A25463BB92349244866
:108F3000FEF7EFFD306008B9606070BD0223346851
:108F40002B72237973B1012B24D020460321FFF724
:108F500075FF00232B726B6018491948BDE87040FB
:108F6000FEF702BED4E90523D21AB2F5805FD4E938
:108F7000031028BF4FF480529208012A38BF012203
:108F800019441844FFF756FF50B11128DDD10123D1
:108F90002B72D2E7D4E903031844FFF74DFFF3E740
:108FA0002B7C002BC9D10146BDE87040022000F0A7
:108FB00009B800BFD0250020E8250020E4250020C6
:108FC000C025002038B5831E012B45D8234C237AB9
:108FD000002B41D0022B09D1032830D0204B002296
:108FE0001B68E2601A793AB1012A22D0637C7BBB0C
:108FF000BDE83840FFF794BFD3E905128D1AB5F5E7
:10900000805F94BF521902F580529A619142EDD16E
:1090100002284FF0000308BF19462372104B18BFF7
:109020000D211868FFF70AFF0E490F48FEF79CFD57
:10903000DCE71A6901321A615B699A42E7E7E36883
:109040000133082B01D8E360D0E70023E360DFE7BA
:10905000BDE8384005F088BC38BD00BFD0250020F1
:10906000E8250020E4250020C025002000F0FD03B5
:10907000012B08D1044B00225A74421E5042504129
:109080001874FFF74DBF7047D025002010B5064C6F
:10909000201DFEF723FE28B9637C1BB9BDE81040F4
:1090A000FFF73EBF10BD00BFD02500202DE9F341E2
:1090B00080460D460F4801A916461F46FEF7EFFCF5
:1090C0000446A8B11C22002105F04EFF2D0B012300
:1090D000237101A90748C4F80080A760E5606661B4
:1090E000FEF707FDFFF7D2FF002002B0BDE8F081D8
:1090F0000420FAE7C02500202DE9F7438146884681
:10910000104801A917461E46FEF7C9FC0446B0B137
:109110001C22002105F028FF00250A9BA36001A95D
:10912000C4E9037807482571C4F800906661FEF72A
:10913000E0FCFFF7ABFF284603B0BDE8F083042056
:10914000FAE700BFC0250020034B1868A0F1080310
:1091500058425841704700BF30010010064B1B6851
:10916000082B06D1054B1B68032B02D8044AD05CA0
:1091700070470020704700BF30010010340100101C
:1091800044F1020008B5FFF7DFFF40B14FF0804324
:109190000022C3F80C21C3F81021C3F83825FFF7CB
:1091A000D3FF002846D04FF080525E4BD2F8041413
:1091B000C3F82015D2F80814C3F82415D2F80C14FB
:1091C000C3F82815D2F81014C3F82C15D2F81414CB
:1091D000C3F83015D2F81814C3F83415D2F81C149B
:1091E000C3F84015D2F82014C3F84415D2F824145B
:1091F000C3F84815D2F82814C3F84C15D2F82C142B
:10920000C3F85015D2F83014C3F85415D2F83414FA
:10921000C3F86015D2F83814C3F86415D2F83C14BA
:10922000C3F86815D2F84014C3F86C15D2F844247A
:10923000C3F87025FFF792FF10B13B4B3B4A1A6011
:10924000FFF78CFF18B13A4BFB22C3F81825FFF744
:1092500085FF48B13749384B0A681B6822F00F0276
:1092600003F00F0313430B60FFF778FF18B1334B84
:109270004FF400721A60FFF767FF48B14FF0804368
:10928000D3F80024D20744BF6FF00102C3F80024D2
:109290002B4AD2F8883043F47003C2F88830BFF309
:1092A0004F8FBFF36F8F4FF01023D3F80022002AA7
:1092B00003DBD3F80432002B2FDA224B0122C3F850
:1092C0000425D3F80024002AFBD04FF010221221ED
:1092D000C2F80012D3F80024002AFBD04FF010236C
:1092E0001222C3F80422174B1A46D3F8001400299F
:1092F000FBD00021C3F80415D2F80034002BFBD0BA
:10930000BFF34F8F0E49104BCA6802F4E06213435B
:10931000CB60BFF34F8F00BFFDE70C4B0C4A1A60C8
:1093200008BD00BF00C000408C56004048810300CB
:1093300000F00040E40E0040580200104096024049
:1093400000ED00E000E001400400FA053C230020AD
:109350000090D00338B5074C051E04F1080318BF70
:109360001C4623682BB11A6822605B682846984720
:10937000F7E738BDF425002020B9054B01225A70CB
:10938000FFF7E8BF012802D1014A9070F8E7704763
:10939000EC25002020B9034B01225A70FFF7DABFF9
:1093A000704700BFEC25002038B50E4C2378B3B9C8
:1093B0000D486360A3602361E36000F073F8054625
:1093C00005F0E2FA08B900F079F801232370074BA1
:1093D000D3F800340BB10123A370284638BD85258E
:1093E000F5E700BFEC250020799302000000014062
:1093F00037B50D4C00230DF107008DF80730FEF74F
:10940000B9F9E368013BE360E36833B9074BD3F88C
:10941000005415B900F064F8A5709DF80700FEF738
:10942000CDF903B030BD00BFEC25002000000140A5
:10943000012813B50CD0032820D038B9124B0122D3
:10944000C3F88020BFF34F8FBFF36F8F02B010BD02
:109450000E4C00230DF107008DF80730FEF78AF956
:1094600023780BB9FFF7A0FFE3689DF807000133ED
:10947000E3600123A370FEF7A1F9E7E700F01EF80F
:10948000FFF7B6FFE2E700BF00E100E0EC250020B7
:1094900000F18040002382B0036003680193019BC8
:1094A00002B07047044A137923B9012110609180FA
:1094B000184670478520704700260020074B1A6821
:1094C000D20704D4C02283F8002301221A604FF08F
:1094D00080430122C3F81825704700BF00E100E077
:1094E0004FF0804208B50223C2F808334FF482706F
:1094F000FFF7CEFF034B01211960D2F81834DB03CC
:10950000FBD408BD0C000040124B1B6810B573B1B2
:109510004FF48070FFF7BCFF4FF080430122C3F887
:1095200008230D4B587910B95A711B6898470B4B9B
:109530001B6873B14FF48270FFF7AAFF4FF08043AE
:109540000222C3F80823044BBDE810401B68012029
:10955000184710BD00010040002600200401004013
:1095600000F1804000F5C040002382B00360036832
:109570000193019B02B0704703681F2B83BF03F068
:109580001F03036001484FF0A040704700030050E4
:1095900007B5019001A8FFF7EFFF019B00EB8300E7
:1095A000D0F8003723F44033C0F80037D0F8003744
:1095B00043EA0141C0F8001703B05DF804FB000066
:1095C0002DE9FF470024CDE90244584D4FF4807245
:1095D000012102F1804303F5C04390B21B68012BC7
:1095E00006D1D5F804330B4202D0FFF7B9FF0C4384
:1095F0000432B2F5907F4FEA4101EAD14C4B1B682F
:10960000012B11D14FF4BE70FFF7AAFF4FF0A0431A
:1096100044F00044D3F820250292C3F82025D3F863
:1096200020280392C3F8202814F0FF0F1AD0414FCE
:1096300001260025344210D0AB0003F1804303F52E
:10964000C043D3F81005D3F8101557F8253023B1CF
:10965000C1F30141C0F3052098470135082D4FEAB9
:109660004606E7D1002C59DA324D334C334E4FF0D9
:109670000008012716F9013B5A1C3CD0C3F3C20174
:1096800004A801445FFA83F911F8081C03F03F02B3
:1096900003F0070307FA03F319422CD001A8019243
:1096A000FFF76AFF019B03F5E07350F82330C3F323
:1096B000014ABAF1020F10460CBF03210221FFF745
:1096C00067FF01A80192FFF757FF019B07FA03F319
:1096D000C0F82035AB1893F9303055F8233053B12A
:1096E0004FEA9911032904D0BAF1020F19D10129C7
:1096F00001D11046984708F10108B8F1040FB9D11B
:109700004FF0A043D3F820250292C3F82025D4F8C7
:1097100020350393C4F820351343A7D104B0BDE826
:10972000F087BAF1030FE6D10229E1E700600040BB
:109730007C610040082600200003005068260020BD
:10974000014B1B68184700BF7426002000234350BC
:1097500082B043580193019B02B07047D0F810319A
:1097600070B505460C4653B14FF48871FFF7EEFF14
:1097700063795A0703D523680BB101209847D5F8C0
:1097800014315BB14FF48A712846FFF7DFFF63792C
:109790001B0703D523680BB102209847D5F81C316D
:1097A0005BB128464FF48E71FFF7D0FF607910F05F
:1097B000100002D1236803B19847D5F8043163B192
:1097C0004FF482712846FFF7C1FF012323712368FC
:1097D0001BB1BDE870400320184770BD0149024825
:1097E000FFF7BCBF7C26002000C0014001490248B1
:1097F000FFF7B4BF84260020001002400149024850
:10980000FFF7ACBF8C26002000200240014902482F
:10981000FFF7A4BF9426002000D002401F2886BF77
:10982000054A00F01F004FF0A042012303FA00F0A8
:10983000C2F80805704700BF000300501F2886BF0C
:10984000054A00F01F004FF0A042012303FA00F088
:10985000C2F80C05704700BF00030050114BD3F84D
:10986000183107B5D3B1104B104900221A60C87FD8
:109870001B680193FF28019B03D08B7F5BB1FFF72F
:10988000DDFF00234B770B72D1E90031084803B0AC
:109890005DF804EB1847FFF7C1FFF2E703B05DF88E
:1098A00004FB00BF00300040183100409C2600201F
:1098B000A42600200023435082B043580193019B0B
:1098C00002B070478B6A4A6B9A4210B54FF00103A1
:1098D00005D2496A8A5CC0F81C251A4604E091F852
:1098E0002C201AB1C3610022104610BD0C6A640618
:1098F00003D5C36181F82D30F6E74361EDE770B51C
:10990000D0F8046104460D4626B14FF48271FFF78A
:10991000D1FF012695F82F2022B34FF492712046F3
:10992000FFF7C8FF4FF48E71FFF7C4FF4FF4847147
:10993000FFF7C0FF002E67D095F82F20002385F891
:109940002D3082BBAB6A696B99421CBF164605235A
:1099500086F001061CBFC4F80025C4F8003585F860
:109960002F6021E0D4F824314BB14FF4927120469E
:10997000FFF7A0FF0123636185F82F30DAE7D4F801
:109980001C319BB14FF48E712046FFF793FF6B6B38
:1099900001336B63D4F82431002BE6D12946FFF75D
:1099A00091FF0028C6D10022104670BDD4F80831BE
:1099B000002BBFD04FF484712046FFF77BFFD4F813
:1099C0002431002BD1D16B6BA96A8B42B2D2696A68
:1099D000D4F81805C8546B6BA96A0133481E83423A
:1099E0006B6308D1286A400610D40223C4F8003201
:1099F000012323629EE78B42FAD12B6A5B0699D53D
:109A0000022385F82D30CFE70122CDE78B42EFD13D
:109A1000F6E7000037B5344B01930D464FF48271E1
:109A20000446FFF747FF4FF49271FFF743FF4FF4EF
:109A30008E71FFF73FFF4FF48471FFF73BFF002368
:109A40006B6385F82F30AB6A012B17D12B6A5B064D
:109A500014D40223C4F800320123236295F82D2088
:109A6000022A18BF23602B6893B140F28623AB60B3
:109A7000AB68C4F80433002003B030BD0123E9E72C
:109A800029462046FFF73BFF28B1019B013B01938C
:109A9000019B002BF4DC95F82F0050B9019B002BA3
:109AA000EADC0023C4F800350523C4F800350320A0
:109AB000E2E7D4F8C434C4F8C43493B113F0010F0E
:109AC00014BF4FF40240032048F2012213F0020FAA
:109AD00018BF104613F0040F48F2022318BF1846AF
:109AE000DCE70320DAE700BFA086010037B5314B81
:109AF00001930D464FF482710446FFF7DBFE4FF4ED
:109B00009271FFF7D7FE4FF48E71FFF7D3FE4FF43B
:109B10008471FFF7CFFE0023C0F800326B6385F835
:109B20002F300123036295F82D209A4218BF8360DD
:109B30002946FFF7C7FE2B6883B140F28623AB604E
:109B4000AB68C4F80433002003B030BD294620467A
:109B5000FFF7D5FE28B1019B013B0193019B002B30
:109B6000F4DC95F82F0050B9019B002BECDC0023AE
:109B7000C4F800350523C4F800350320E4E7D4F821
:109B8000C434C4F8C43493B113F0010F14BF4FF4BC
:109B90000240032048F2012213F0020F18BF1046C2
:109BA00013F0040F48F2022318BF1846DCE7032025
:109BB000DAE700BFA0860100F0B52A4C87B0214645
:109BC0004FF04020FFF79BFEA446E0B994F82F60C9
:109BD000276AEEB9237B9A1E012A19D8616AA26905
:109BE000914215D1E2696262C7F340176269A262CD
:109BF000032B84F82C7084F82D6021464FF0402010
:109C000003D1FFF773FF07B0F0BDFFF703FFFAE7DB
:109C1000154D0FCD01AC0FC42B682360FEB14FF082
:109C20004022D2F8C434C2F8C43498070ED50123B8
:109C30008DF8003000238CF830307B0701D5002EE2
:109C4000E1D0DCE9003168469847DCE7590701D5E7
:109C50000223EDE7DA074CBF03230423E8E78DF87E
:109C60000060E7E7C0260020CC26002000F18040FD
:109C700000F5E040002382B0036003680193019B7C
:109C800002B07047F0B5504B504C1B6885B0002BAC
:109C90003DD04FF4827094F82E20FFF7E7FF2AB3EF
:109CA00094F82F3013BB4A4B1B68002B33D04FF472
:109CB0008070FFF7DBFF638B94F82D108B424FD938
:109CC00022895B1A9BB292B26383D31A626802EB59
:109CD0004303404AC2F82C36C2F830164FF4827063
:109CE000FFF7C4FF3C4B01221A6014E06368029343
:109CF0002389ADF80C30E36800218DF8041023BBF4
:109D00002374236801A89847002384F82F3094F81F
:109D10002E30002BC7D1314B1B685BB14FF48870DC
:109D2000FFF7A4FF0023237402238DF8043001A859
:109D3000236898472A4B1B68EBB14FF48A70FFF7F2
:109D400095FF0023237405B0F0BD208B6083636012
:109D50002081E160002AD4D11E4B01221A60D0E795
:109D6000BCD1E368012284F82F2013B10022628362
:109D7000AFE76383B2E766694FF000470125002E25
:109D8000E1D0B6FA86F227FA02F34632920026EACA
:109D9000030602F1804303F5E0431B68002BEED07D
:109DA0001046FFF763FFA2F58C72D30882F004021D
:109DB000C2F380028DF808308DF8045023688DF8C6
:109DC000092001A89847DAE704710040FC2600202A
:109DD00000710040007000400470004010710040AD
:109DE0001471004038B5204A92F82C300446002BFC
:109DF00037D111601D490078C1F8F0056078C1F8CD
:109E0000F4050125137482F82D30536182F82F3048
:109E1000E07882F82E006FF0004382F82C504FF467
:109E20008270C1F80833FFF721FF4FF48070FFF70D
:109E30001DFF4FF48A70FFF719FFA3780C485B01F0
:109E4000DBB280F80733802303600223C1F80433B8
:109E500092F82E300BB1C1F80453C1F80055002020
:109E600038BD0820FCE700BFFC2600200070004041
:109E700000E100E030B5224B1A7C002A3ED100F10F
:109E80000C0403EB4402127922B993F82D2001321D
:109E900083F82D2003EB4403CA790C7A8D781A716C
:109EA0005C714B782D021B0105F4E06503F0300373
:109EB0002B430D7805F003052B43CD782D0305F4D6
:109EC00080552B430D792D0405F4E0252B434D7966
:109ED00089792D0505F48015090601F080712B4361
:109EE0000B43010101F1804101F5E0410020C1F87F
:109EF0001835C1F81445C1F8102530BD1120FCE714
:109F0000FC260020054B93F82E30002B14BF0020B8
:109F1000042000F1804000F5E0407047FC2600205E
:109F200070B5264A264B05461220C2F808031C7C51
:109F3000022C03D1C2F80403112070BD187C012843
:109F40001DD1D86818B10223C2F80433F4E7DD60EC
:109F5000198393F82E3063B91A4A1368002BFCD08A
:109F60004FF48070FFF782FE144BC3F82C56C3F8F1
:109F70003016124B0222C3F804230020DDE7022032
:109F800093F82E40C2F80403012600201E745D6081
:109F90001981D8603CB1598393F82D30C2F82C5602
:109FA000C2F83036C9E7C2F82C564FF48070C2F8B8
:109FB0003016FFF75BFE20461660BEE700700040DB
:109FC000FC260020007100402DE9F74F4FF00009FA
:109FD000154D164F06464FF0040AC8465FFA89FB36
:109FE00001240DF1070004FA0BF48DF80780FDF74A
:109FF000C1FB2C4208D03B6814EA030201BF234393
:10A000003B6086F800B092469DF80700FDF7D6FB4E
:10A01000BAF1000F03D0A54309F10109DED1504682
:10A0200003B0BDE8F08F00BFFFFF01002C27002028
:10A0300010B5A1B19AB101238340C3F3100484B1D8
:10A040000A4C246823420ED0C00000F1804000F585
:10A05000F830C0F81015C0F81425002010BD0E20EF
:10A06000FCE70720FAE70820F8E700BF2C270020CC
:10A07000012202FA00F3580C400440B91BB1064A11
:10A080001268134205D0054AC2F80435704707200C
:10A0900070470820704700BF2C27002000F00140C7
:10A0A000034B187810B901221A7070478520704749
:10A0B00030270020F7B506792F4D0C237343EF1896
:10A0C0003C7A002C55D1EA504B687B604779036895
:10A0D0002246A446D4B2A7423CD8CA7843F30734F8
:10A0E0005201002CC3F30733D2B23DDB234F07EB01
:10A0F000040C8CF800230122640903F01F0302FA08
:10A1000003F347F8243003684A78D3F8040502F0D3
:10A11000030220F003000243C3F80425D3F8080526
:10A120008A7820F0030002F003020243C3F80825F6
:10A13000D3F810050A7820F00F0102F00F020A434D
:10A14000C3F810250C2303FB065501232B720020B6
:10A1500003B0F0BD940004F5A074013243F804C0CC
:10A160001C590194019CB5E7054C03F00F03E25420
:10A17000C9E70820ECE700BF3427002000E100E039
:10A1800014ED00E0036801221A600379034A0C21F0
:10A1900001FB032302221A72704700BF34270020FC
:10A1A00037B54FF4803400688C407BB18B0003F5E9
:10A1B000A0730025C550C3580193019BC0F8044308
:10A1C00001F5A87140F8212003B030BDC0F8084364
:10A1D000F6E770B4046840F20116D4F800528E40DD
:10A1E00025EA0605C4F80052D4F800522B43C4F8FF
:10A1F00000329DF80C3070BCFFF7D2BF2DE9F3415F
:10A20000104C114F114E00254FF48038236883B154
:10A21000D7F8043308FA05F21A420AD00023236063
:10A220002368019304F5C040019B80B2D6E9003158
:10A2300098470135062D04F10404E7D102B0BDE8CA
:10A24000F08100BF40A1014000A001403427002060
:10A2500008B500F099F903F0E7FE03F01BFF03F0E7
:10A26000EDFE00F05FF8064B064C074D01221A7018
:10A2700004F07CFAC4F8005603F0D4FEF8E700BFFF
:10A28000DE270020000001403546526E174810B509
:10A29000174C0421024614F8013B13B10388013323
:10A2A0009BB2013920F8023BF5D113883B2B81BFCB
:10A2B000104B1180012119705388C72B04D900233A
:10A2C00053800C4B012159709388C72B04D900236C
:10A2D0009380084B01219970D388C72B04D90023A0
:10A2E000D380044B0122DA7010BD00BFD6270020B6
:10A2F000DE270020E227002008B5FDF70DF908B1A0
:10A30000FDF766F8054A06480121FDF737F918B14F
:10A31000BDE80840FDF75CB808BD00BF8DA2020093
:10A3200048F1020008B50648002240F26661FDF7D8
:10A3300030F918B1BDE80840FDF74AB808BD00BFC4
:10A34000402700207047000070B5037804460BBB1F
:10A3500040680421FFF7E4FD08B1FDF739F86268B1
:10A360001849901E063230F8025F0C46092334F873
:10A37000026C24F80269013BF9D1904221F8125C89
:10A3800001F11401EFD110490A780132D2B20B2A3F
:10A3900001D00A7070BD0B700C4C0A490A25A1F15E
:10A3A0001400002230F8026F81423244FAD1B2FB2D
:10A3B000F5F20133042B24F8022B01F11401EED144
:10A3C000E8E700BF84270020CD270020CE2700200B
:10A3D0001FB5FFF765FE08B1FCF7FAFF174A1848EA
:10A3E0000023CDE9022302A9164AFFF763FE08B154
:10A3F000FCF7EEFF144B1548D3F810250021D2B21C
:10A4000020FA02F2009101230D48FFF7E2FE0C480A
:10A41000FFF7B8FEFFF776FD04460D48FFF7D4FDC1
:10A4200008B1FCF7D5FF0A4B0A4918782246FFF716
:10A43000FFFD08B1FCF7CCFF04B010BD0900000619
:10A4400074F1020045A3020000A0014000093D0094
:10A450007027002040A1014008B5054B1878FFF790
:10A4600007FE18B1BDE80840FCF7B2BF08BD00BF49
:10A470007027002030B5304B8FB01D461868019012
:10A4800055F8040F696802AC03C4297A21701D468F
:10A4900005AC55F80D0F696803C4297A21701D4673
:10A4A00008AC55F8160F696803C453F81F0F297AD2
:10A4B000217059681B7A0BAC03C402221F498DF826
:10A4C000042001A8ADF80A20ADF81620ADF822202E
:10A4D0002370ADF82E20FFF785FC08B1FCF778FF5C
:10A4E00002A90020FFF7C6FC08B1FCF771FF05A91F
:10A4F0000120FFF7BFFC08B1FCF76AFF08A90220A2
:10A50000FFF7B8FC08B1FCF763FF0BA90320FFF7C6
:10A51000B1FC08B1FCF75CFF09480421FFF700FD1E
:10A5200008B1FCF755FF07480421FFF7F9FC08B113
:10A53000FCF74EFF0FB030BD4CF1020049A3020002
:10A5400060270020682700200C4A002313704FF07A
:10A5500080510B4A13704A6E0A4B100E1870100C83
:10A560005870100A9870DA700A6EDA71110E19714B
:10A57000110C5971110A9971704700BFC32700204F
:10A58000C4270020C527002008B5FFF7B5FEFFF758
:10A59000DBFFFFF71DFFFFF76DFFBDE80840FFF78A
:10A5A0005BBF6DDF704779DF70477DDF704764DF29
:10A5B00070472DE9F04F85B000250E9CBDF83CB0EA
:10A5C000B4F800A00191074690461E46A9463A8875
:10A5D0004A450DDC45B12388013BA3EB0A039BB23E
:10A5E000FF2B3AD806F80A30002005B0BDE8F08FFE
:10A5F0007A6852F82900039000220DF10B0103A89C
:10A60000FFF7D5FF0028F0D19DF80B20424521D15E
:10A610002288002D14BF0020022002EB0801014413
:10A6200059451ADC3DB9013292B2019B2280B354E4
:10A6300022880132228022880DF10B01324403A8C6
:10A64000FFF7B5FF0028D0D121889DF80B200A44E0
:10A650002280012509F10109B9E70C20C5E72DE9A0
:10A66000F341089FBDF824801546CDE90078022209
:10A6700004461E46FFF79DFF50B933461022294677
:10A680002046CDE9087802B0BDE8F041FFF791BF60
:10A6900002B0BDE8F0812DE9F04F00231788138048
:10A6A00090F82D3085B006460D46144653B3082F5A
:10A6B00001D80C2027E102A8FFF773FF002840F023
:10A6C000228123880822EA54238801339BB21B226B
:10A6D0002380EA542088013080B2208006220DF1C8
:10A6E0000901284404F017FC23889DF8082006334C
:10A6F0009BB212F0FE0218BF01222380EA54238885
:10A7000001332380B378FBB123880433BB42D0D814
:10A7100002A8FFF748FF002840F0F58023880322B5
:10A72000EA54238801339BB219222380EA542388F8
:10A73000BDF8082001339BB2E9182380EA54120ABD
:10A740004A70238802332380F2789AB12388D91C77
:10A75000B942AED80221E954238801339BB20121CA
:10A760002380E95423880B449BB22380EA54238836
:10A770000B4423807268AAB12388D91CB94298D8A7
:10A78000022192F90020E954238801339BB20A2167
:10A790002380E954238801339BB22380EA54238821
:10A7A000013323803389002B40F0A180338A5BB1D1
:10A7B000CDE900472B460722032106F11000FFF7E1
:10A7C0004EFF002840F09F80338B5BB1CDE90047FE
:10A7D0002B461522142106F11800FFF740FF002830
:10A7E00040F09180326A002A40F09080D6F82480B0
:10A7F000B8F1000F30D0B8F804302188981C8A1CBA
:10A800000244BA423FF655AFFE283FF652AF03333B
:10A810006B54238801339BB2FF222380EA542388A0
:10A8200001339BB22380B8F80020EA54E918120AD9
:10A830004A702088023080B22080B8F804205AB1D3
:10A84000D8F8081000296BD0284404F064FB238852
:10A85000B8F804201344238096F82C30002B40F0E5
:10A860009A80307800284ED03388012B58D0228827
:10A8700002F1020CBC453FF61CAF012805D17378EC
:10A88000023313449F42FFF414AF023FBF1ABFB21A
:10A8900002A905EB0C00ADF80870FFF786FE90BB2F
:10A8A0003178BDF80830022900F0BA8072789A42F7
:10A8B00002D3BB4240F2B280012940F0B3809742FC
:10A8C00093B2C0F0AF80ADF808300821BDF8083071
:10A8D000FE2B3FF6EEAE22880133AB5422880132C4
:10A8E00092B22280A9542288134423800BE0CDE940
:10A8F00000472B460622022106F10800FFF7AFFEB3
:10A9000000283FF453AF05B0BDE8F08FB4F800C0A5
:10A910000CF10603BB423FF6CCAE1188052901D8E5
:10A920000720F0E76FF4486E01EB0E039BB24FF285
:10A930007D3E7345F4D95388052BF1D96FF44860F7
:10A94000181880B27045EBD94FF6FF70814203D0E2
:10A95000834201D09942E3D8052305F80C302388BF
:10A9600001339BB212212380E954238801339BB227
:10A9700023801188E954E818090A417023880233BA
:10A980009BB223805288EA54E918120A4A7023883D
:10A99000023323802AE7B36A002BC1D04FF00009AD
:10A9A0004FF00C0A4FF0160B96F82C305FFA89F234
:10A9B00093427FF656AFB16A0AFB02F201EB02083E
:10A9C000B8F80430981CFE283FF673AE2088033395
:10A9D0002B54238801339BB2238005F803B02388CE
:10A9E00001339BB223808A5AEA54E918120A4A704A
:10A9F0002088023080B22080B8F804205AB1D8F8FC
:10AA0000081000298CD0284404F085FA2388B8F86F
:10AA100004201344238009F10109C5E7092155E702
:10AA2000BB42FBD9ADF808704FE730B5C8B1F2B101
:10AA30000024651C8D4206DA1588A54212D8051936
:10AA40006D789D420ED1A14211D9005D48B1013807
:10AA500080B230B10234A3B210FA84F4A14206DB12
:10AA6000138030BD055D01352C44A4B2E1E7002020
:10AA7000F7E713B513460022ADF806200DF10602E4
:10AA80000446FFF7D2FF10B1BDF80630E01802B05F
:10AA900010BD75DF704776DF70477ADF70477BDF68
:10AAA00070470000034B1A8882420CBF18460020F2
:10AAB000704700BF18280020024B9B6903B118475C
:10AAC000704700BFFC27002073B585B22846FFF70A
:10AAD000E9FF044670B1164E027A337B9A420BD2DC
:10AAE00000F10A012846FFF7D4FFE8B1112801D090
:10AAF000FFF7E2FF02B070BD00230372337C43B165
:10AB00003B212846FFF7C7FF30F0080301D0FFF7CD
:10AB1000D3FF7369002BEDD000228DF80420ADF82F
:10AB2000065001A89847E5E7237A01332372E1E74D
:10AB3000FC27002037B50B46497A0F4A71B9D2E994
:10AB400001141D7A0246002D18BF21465868FCF7F3
:10AB500020FD08B1FFF7B0FF03B030BD002119722E
:10AB60005369002BF8D00122ADF806008DF80420BF
:10AB700001A89847F0E700BFFC2700204B88028817
:10AB80009A4213D842889A4210D380888A8840F229
:10AB9000F313984294BF031AC31A934206D800F2E3
:10ABA000F310904234BF002001207047002070470E
:10ABB0000388122B70B5014659D004D8102B1ED033
:10ABC000112B44D070BD502BFCD12F4BC288DB8998
:10ABD0009A42F7D1038A022BF4D186883046FFF7D8
:10ABE00061FF05460028EDD001F1120000F01DFACA
:10ABF00038BB6868FCF7E5FC0028E3D009E0C37BBC
:10AC0000012BDFD14FF6FF70FFF74CFF054620B94F
:10AC10000420BDE87040FFF74FBF1C4A8E880680B5
:10AC2000002303721368C0F80A305368C0F80E306E
:10AC300010310A30FFF7A2FF134B6872DB89002B3B
:10AC4000C0D129463046BDE87040FFF773BF808809
:10AC5000FFF728FF04460028B4D04068FCF7B1FC99
:10AC600008B1FFF729FF4FF6FF732380AAE7868814
:10AC70003046FFF717FF05460028A3D008310A30F9
:10AC8000FFF77CFF6872DCE7FC2700202C280020FF
:10AC9000F8B5064648B305460FCD154F3C460FC4E0
:10ACA00095E8070084E807003068124C3C60B0B1BA
:10ACB000FFF7F3FEC0B9326813682360536863601E
:10ACC0000D480E4A4FF6FF7303800D4B40F8043FCA
:10ACD0000021FCF753FC002818BF032004E02046A5
:10ACE000FFF7DDFE0028EBD0F8BD0E20FCE700BF2B
:10ACF000FC2700202C28002018280020C9AA0200C8
:10AD000038280020F7B5174601900E4691B1019CF6
:10AD10006CB100252C46294601A8FCF756FF18B156
:10AD20003946A8B2B04701340135142DF3D120467D
:10AD300003B0F0BD0C46FAE70AB1FCF725BFFCF7FB
:10AD40003ABF73B50191019C06466CB100252C46B3
:10AD5000294601A8FCF739FF18B106EB440301347A
:10AD60009D800135142DF3D13046346002B070BDA2
:10AD70002DE9F04703888488103B8CB005460A2BE8
:10AD80001FD8DFE803F0063F1E1E1E1E1E1E1E609B
:10AD90004400314EB368DB43009371686846FCF7AA
:10ADA0006DFF009901A8FFF7CCFF0DF108094FF0E6
:10ADB0000008019B984507D3132C13D90420FCF7F6
:10ADC00007FB0CB0BDE8F08739F802AB002701376C
:10ADD000514606EB8700FCF7EEFE1E2FF7D108F177
:10ADE0000108E6E71D482146FCF7CEFE1C48214637
:10ADF000FCF7CAFEEB7B022BE3D11A482146FCF795
:10AE0000C3FEDEE715482146FCF7D5FED9E7027AF6
:10AE100015483F2A4FEA1215214694BF002201220D
:10AE2000FFF78AFF022D94BF002201220F4821461E
:10AE3000FFF782FF012D0E4894BF00220122214618
:10AE4000FFF77AFFBDE7037A002BBAD1427A0648B2
:10AE5000C2F3C0022146F3E75828002060280020F2
:10AE60005C28002064280020702800206C28002026
:10AE7000682800201328014602D80248FCF7A5BE26
:10AE8000002070475C28002007B50190FFF7F2FF13
:10AE9000019930B10448FCF798FE002814BF022045
:10AEA000012003B05DF804FB6428002007B5019081
:10AEB000FFF7E0FF019930B10448FCF786FE002857
:10AEC00014BF0220012003B05DF804FB60280020BD
:10AED00007B50190FFF7CEFF019928B1044803B0F0
:10AEE0005DF804EBFCF771BE03B05DF804FB00BF36
:10AEF0006828002007B50190FFF7BCFF019928B131
:10AF0000044803B05DF804EBFCF75FBE03B05DF8E6
:10AF100004FB00BF6C28002007B50190FFF7AAFFD3
:10AF2000019928B1044803B05DF804EBFCF74DBE6D
:10AF300003B05DF804FB00BF7028002008B518219D
:10AF40000248FCF74BFEC0B208BD00BF58280020E5
:10AF500070B50A4E054630460C46FCF736FE58B131
:10AF60002846FFF787FF38B10734294606EB8400EF
:10AF7000BDE87040FCF729BE002070BD58280020B5
:10AF8000F8B50B4F054638460C461646FCF71DFE35
:10AF900060B12846FFF76EFF40B1073432462946BC
:10AFA00007EB8400BDE8F840FFF7C6BEF8BD00BF60
:10AFB00058280020034B9B680A4601461846FFF7B5
:10AFC000A1BE00BF5828002073B50B4D0192044666
:10AFD0000E4601462846FCF7F8FD50B1063405EB55
:10AFE0008404019A6068314602B0BDE87040FFF702
:10AFF00089BE02B070BD00BF58280020AADF70478C
:10B00000002301380B70042806D8DFE800F003069F
:10B01000080A0C0011230B7070472123FBE7312332
:10B02000F9E71223F7E72223F5E7007800F00100A3
:10B0300070470078C0F340007047F0B58B7891B04E
:10B04000012B0C4638BF01238DF80E3005460B88C6
:10B05000ADF80C30002116466846032203F084FF49
:10B06000607C6946FFF7CCFFA07C0DF10101FFF782
:10B07000C7FFE27B237B217D43EAC203227C43EAB4
:10B0800002139DF80220002922F0190203F019038F
:10B0900014BF02210121134361F342031C2200214A
:10B0A00009A88DF8023003F05FFF637B13F0300FC7
:10B0B00015D002AF03220021384603F055FFE07C93
:10B0C0000DF10901FFF79CFF11238DF808309DF861
:10B0D0000A300E97012262F342038DF80A30637B37
:10B0E0008DF824301422A37B8DF82530002104A88C
:10B0F00003F03AFF03AB0493A388ADF81C30A368B8
:10B10000CDF814D01BB1E288ADF818200893A369DC
:10B11000002B31D001AF03220021384603F024FF79
:10B12000A3691A88ADF82C205A88ADF82E205A68E9
:10B130000D97187B0A923946FFF762FFA3690DF15C
:10B140000501587BFFF75CFFA269917A137A43EA05
:10B15000C103D17A927B43EA01139DF80610002ABD
:10B1600003F0190321F0190114BF022201220B433D
:10B1700062F342038DF80630E36903B10C93334662
:10B1800004AA09A92846FFF739FF11B0F0BD90DFE6
:10B190007047A5DF7047B5DF70471FB50023ADF8D6
:10B1A0000810ADF80A106A4602A903930093ADF89F
:10B1B0000430FFF7ECFF05B05DF804FB78B14FF009
:10B1C000171303601B2303711723C380038141F608
:10B1D0001B320023016143818281184670470E2093
:10B1E000704713B5034680880C4698B91A88242AFC
:10B1F00075D011D8112A52D0232A7DD0102A2BD0F5
:10B20000A37A3BB1E1880020FFF7C3FF10B94FF4E8
:10B210008073638102B010BD3A2A48D0552AEFD11D
:10B22000DB88C988A072172B38BF17238B4228BF31
:10B230000B462381FFF7AFFFE37A002BE0D12369B0
:10B24000002BDDD040F6772200922289ADF8042051
:10B25000694620469847D3E7DB7B0A790A73012BBE
:10B2600013D0022B14D0E18823898B4205D2002011
:10B27000FFF78FFF70B90123E372217B637B8B4261
:10B28000BED20020FFF789FFBAE70B88E380EAE728
:10B290004B88FBE7112804BF0123A372EDE71723B6
:10B2A000CB800B8141F61B3348818B81A8E75B89FA
:10B2B000CA88934228BF1346172B0A6938BF172341
:10B2C0000B814AB1C97A39B140F677210091ADF8C6
:10B2D00004306946204690470023638190E71A7A3C
:10B2E0000B694A73002B8BD04DF67A218DF805003F
:10B2F00000918DF80420ABE7197A237B994228BF8F
:10B300001946BFE7B0DF704766DF704710B5002110
:10B3100004464088FFF7F8FF034608B9237210BDC2
:10B32000112801D10123F9E76368BDE810401847EF
:10B3300060B159B10378DE2B0AD00B684360DE237D
:10B3400003704FF6FF734380002070470E20704754
:10B350000820704728B10378DE2B04D141800020FB
:10B3600070470E20704708207047F0B5054685B03D
:10B370000C46F1B1E8B10B78DE2B1AD182884B88EC
:10B380009A4204D10B7A13B10846FFF7BFFF2B880E
:10B39000112B32D0512B0ED0012B0AD12B7A012B3D
:10B3A00007D1A9886288914203D123722046FFF712
:10B3B000ADFF05B0F0BDAE886388B342F9D1AF7977
:10B3C000022FF6D1AD7B2B1F022BF2D800211022C9
:10B3D000684603F0C9FD052D14BF4FF4C073002368
:10B3E000694630468DF80070ADF80430FFF78AFFEB
:10B3F0000028DED063689847DBE76388AA889A4212
:10B4000004BF4FF6FF736380D3E7012804D00438EC
:10B4100005288CBF0020012070474FF6FF73438042
:10B4200000F082BA2DE9F041214E8AB000210822B5
:10B430006846317003F098FD4FF6FF7000F062FC33
:10B440004FF6FF78044648F20967444513D0A4F547
:10B450008045ADB26A4602A92846FDF7F5FBB84221
:10B460000CD02846FDF788FB48F207639842054652
:10B470000CD1012333700AB0BDE8F081204600F002
:10B48000E3FB204600F03EFC0446DEE7002DF2D050
:10B49000142200210DEB020003F066FD072305A82E
:10B4A0008DF81430ADF818400795FFF7B6FFE2E7C6
:10B4B000DC28002070B5044686B0142632460021F0
:10B4C00001A803F051FDA0892378304D00F580409C
:10B4D00080B2042BADF808003DD008D85A1E022ACD
:10B4E00012D92B780BB1FFF79DFF06B070BD052B6D
:10B4F000F7D16368002B44D113238DF804304FF645
:10B50000FF73ADF808301DE043F6FE76B042E189E6
:10B5100004D901F5804292B2B242E2D8DA1E534217
:10B5200053418DF80D30A368049363688DF80C10B7
:10B5300063B908238DF804309DF8143043F00103FB
:10B540008DF8143001A8FFF768FFCAE709228DF8CB
:10B5500004200593F6E743F6FE739842C1D8E389C9
:10B56000002BBED163683BB90A238DF8043000F08C
:10B570006BFB01232B70E5E70B228DF8042003936E
:10B58000F7E78DF804600393B9E700BFDC280020DB
:10B5900073B504460D46164600210822684603F09E
:10B5A000E3FCA5F58041A4F580406B46324689B2A4
:10B5B00080B2FDF72FFB002818BF052002B070BD38
:10B5C00030B5174889B0FDF759F920BBFDF76CF984
:10B5D000044610BB00F018FB0822214603A803F024
:10B5E000C3FC03AA05A94CF20700FDF720FB10B12C
:10B5F000204609B030BD01A905A8FDF767FA019BF7
:10B600009D8805F58045ADB205A8FDF785FA284669
:10B6100000F002FBE5E70324EAE78624E8E700BF41
:10B62000B5B40200F0B5FF2887B004460E461546B3
:10B630001F462BD80846FFF7E8FE38B303AA20467A
:10B64000FFF7A6FF18B10524204607B0F0BD01A9F9
:10B6500003A8FDF73BFA04460028F4D1019BAE7025
:10B660005E8802992E8027B9696003A8FDF754FA15
:10B67000EAE73F686868B600B74228BF37463A46EF
:10B6800003F049FCBE42F0D90C24DDE70724DBE7D8
:10B6900002480822002103F067BC00BFD428002024
:10B6A000F0B587B006460F461546FFF7AEFE0446D6
:10B6B000F8B1A6F58040104A03A980B2FDF7B7FAA9
:10B6C00018B10024204607B0F0BD01A903A8FDF77A
:10B6D000FDF90028F5D1019BAE705A889B882A801D
:10B6E00003F58043029A6A6003A83B80FDF714FAD1
:10B6F000E8E70124E6E700BFD428002030B5FF28A2
:10B7000087B003460C4615463CD889780846FFF7B3
:10B710007CFE002836D0A3F58042ADF80020A1F5CC
:10B720008042ADF802206268019222880292184697
:10B7300003AAFFF72DFF0528694603A812D1FDF7DC
:10B740000FFA0446A8B1A0F50644023C0B2C1BD806
:10B750000B2C19D8DFE804F014181818091A181857
:10B760001818181AFDF700FAEBE78624204607B0F0
:10B7700030BD002DFAD0294603A8FDF772FAF5E78F
:10B780001024F3E70724F1E70324EFE71124EDE7A2
:10B790004FF6FF7000F040BAFF2808B505D800F05A
:10B7A00041FAFFF73FFE002008BD0720FCE700F04C
:10B7B00061BA00F08DBA00F0A5BA00000A68084B23
:10B7C00070B50C25032A01D9002006E005FB02F420
:10B7D000E65A864202D10A60181970BD0132F1E7BB
:10B7E000342A002037B500230D460446019301A9F1
:10B7F000FFF7E4FF38B18378AB4206D1837A9B0729
:10B8000003D143680BB903B030BD019B01330193F1
:10B8100001A92046ECE710B5044600F09BFB20464A
:10B8200001F012FB204602F0B5F82046BDE81040BA
:10B8300001F00CBF70B50E4E04460025237AAB42D2
:10B840000DD84FF6FF732380A370002363604FF47D
:10B850007F432381A37A23F00303A37270BD617A2F
:10B860002944C9B2304600F0B7FD0135E6E700BF14
:10B87000242A002013B50023CDE90033417A8378D0
:10B880008DF802300446264800F08DFD60B3237A1F
:10B89000A2788DF8022003EB83039B00ADF8003003
:10B8A000531E0190072B08D8DFE803F0160707079F
:10B8B000071604181423ADF800302246694632F802
:10B8C000040BFFF71BFF112815D00BD870B1072808
:10B8D00018BF032002B010BD0123ECE783880933B1
:10B8E0009B08E8E7862811D00320F3E7A37A23F02A
:10B8F0000303A372EEE7A37A23F0030343F00203EA
:10B90000A372084B01221A700020E3E7A37A23F008
:10B91000030343F00103A372024B01221A70D9E71B
:10B92000242A0020202A00202DE9F047384EC16843
:10B9300086B00546324600233746506881421BD107
:10B940000C2000FB03702B78DFF8C880092B1AD07D
:10B95000132B51D0082B51D16C7A002C4ED10028DA
:10B960004ED0FFF767FF2846FFF755FF98F80030E5
:10B970009BB906B0BDE8F0870133042B02F10C023D
:10B98000DBD10020DFE76C7A002C37D1002837D0DC
:10B99000837A446043F002038372002588F80050E4
:10B9A0004FF00C094FF0010A09FB05739B7A9907C8
:10B9B000C3F3400201D4DB0724D588F800A002B904
:10B9C00004B33046FFF756FFE0B14FF6FF73ADF812
:10B9D00006300C235D4386287B5BADF8083016BF2C
:10B9E00003900623072301A80CBF8DF804308DF8BF
:10B9F0000430FFF710FFBCE70124B4E70024B2E7EE
:10BA00000446B0E70135042D06F10C06CCD1B0E7B1
:10BA1000342A0020202A0020154BF7B500221E46AC
:10BA20004FF6FF754FF0FF0C0C27104607FB026422
:10BA30001D809D7083F809C0A17A013221F00301B5
:10BA4000042AA17203F10C0303F8040C43F8080C58
:10BA5000ECD15023CDE900230649074B07484FF4AA
:10BA6000A07200F08CFC002818BF032003B0F0BDCA
:10BA7000342A0020E0280020642A0020242A002004
:10BA80000023FFF7CFBD00002DE9F04180460E46B0
:10BA900014461F46002B4ED0CB1F012B4ED8531EF1
:10BAA000032B4BD8FFF79EFE054610BBFF214FF638
:10BAB000FF70FFF797FE0546C8B1A0F800808670BA
:10BAC0006B7AFF2B1AD11F48214600F09DFCFF28FE
:10BAD00068722DD14FF6FF732B8000236B604FF4FB
:10BAE0007F432B81AB7AA87023F00303AB72112044
:10BAF00022E0037AA342E3D00F201DE04FF00008BC
:10BB0000697A10482C7200F04EFCC8B104EB840432
:10BB10002401A4B2A408BE7078603C80B8F1000F84
:10BB200004D0082E02D1A400063C8480002003E04B
:10BB30004FF00108E4E70E20BDE8F0810720FBE7A5
:10BB40000320F9E7242A002008B5FFF74BFE18B1BF
:10BB5000FFF770FE002008BD0520FCE713B50023A9
:10BB60000446019301A9FFF729FE30B92046FFF7EB
:10BB700013FE50B1072807D107E081782046FFF770
:10BB8000E3FF20B1052802D0032002B010BD019BC5
:10BB90000133019301A92046E5E7CB1F012B70B5C6
:10BBA00006460C46154601D9072070BD1046FFF722
:10BBB000FEFD0028F8D021463046FFF713FE28B1DD
:10BBC00084700580BDE87040FFF754BE0520ECE7A7
:10BBD00010B54FF6FF7304469C4208460AD14FF455
:10BBE0008071FBF7FBFF84B2B4F5807F09D14FF67B
:10BBF000FF7406E0FF2CFAD82146FBF7CEFF0028A1
:10BC0000F5D1204610BD000002484022002103F07B
:10BC1000ABB900BF682A00200149FFF7D9BF00BFB8
:10BC2000682A00204FF6FF73984210B5044606D0EC
:10BC30000449FFF7CDFF231A5842584110BD002098
:10BC4000FCE700BF882A0020FF2807B501460AD874
:10BC500001900648FBF7AFFF0199054803B05DF876
:10BC600004EBFBF7A8BF03B05DF804FB682A0020D3
:10BC7000882A0020FF28014602D80248FBF7A5BF0A
:10BC800000207047682A0020FF28014602D8024899
:10BC9000FBF79BBF00207047882A00204FF6FF73F8
:10BCA000984270B518BF441C0E4614BFA4B20024BD
:10BCB000A5B2FF2D02D94FF6FF7506E021463046AA
:10BCC000FBF783FF01340028F2D0284670BD000046
:10BCD00070B50B490A4EFFF7E1FF4FF6FF750446BA
:10BCE000AC4201D1204670BD2046FFF7CDFF0028B1
:10BCF000F8D020463146FFF7D1FF0446F0E700BFF9
:10BD0000682A00200149FFF7C9BF00BF882A002028
:10BD1000F8B5074D074E074600243378A34200DCF0
:10BD2000F8BD55F8043B384698470134F5E700BFA5
:10BD3000B02A0020BF2A0020074B1B7810B504460C
:10BD40004BB102F06BF8204601F0BAF82046BDE88E
:10BD5000104001F03DBD10BDBE2A002008B1FFF724
:10BD6000D7BF7047FFF7D4BFFFF7D2BFFFF7D0BFF1
:10BD700008B5FFF725FC08B1032008BDFFF74CFE0E
:10BD80000028F9D101F080F80028F5D100F046FC38
:10BD90000028F1D101F0A2FC0028EDD101F006FE4F
:10BDA0000028E9D1054B4FF6FF721A80044B18604A
:10BDB000044B1870044B01221A70DEE7BC2A0020E5
:10BDC000C42A0020C02A0020BE2A0020084B1B786D
:10BDD00053B1084A1378022B08D8074941F82300C9
:10BDE000013313700020704708207047042070470B
:10BDF000BE2A0020BF2A0020B02A0020034B1B7857
:10BE00000BB101F077B80820704700BFBE2A0020B0
:10BE100008B5054B1B782BB101F08AF8082808BF3C
:10BE2000112008BD0820FCE7BE2A0020034B1B7828
:10BE30000BB100F06ABF0820704700BFBE2A002087
:10BE4000034B1B780BB101F087BF0820704700BF80
:10BE5000BE2A00202DE9F04F87B0814601932C4B7C
:10BE60001B7888461646002B50D04FF6FF70FFF720
:10BE7000A0FC00250423CDE9025302AB059304AADC
:10BE800003AB062104460495FFF7CCFB072839D005
:10BE90004FF6FF77BB464FF0FF3AF0B1052825D0AB
:10BEA0004FF6FF739C422FD1A34529D0A7420CBF68
:10BEB00005200020B9F1000F01D0A9F800B0B8F1B9
:10BEC000000F01D0C8F8005006B13780019B0BB1BC
:10BED000C3F800A007B0BDE8F08F029BAB4224BFBF
:10BEE000A3461D4653453CBF27469A462046FFF7CA
:10BEF00060FC03AB04AA06210446FFF793FBCCE7E2
:10BF00000520D7E70520E5E70320E3E70820E1E780
:10BF1000BE2A002038B50C4C0C4D00231A46214691
:10BF20002846FFF797FF05280AD14FF6FF732B80AD
:10BF300000232360431F58425841054B187038BDF9
:10BF40000028F7D10120F8E7A82A0020BC2A002009
:10BF5000C02A0020F0B5044687B0808801F08EFE2C
:10BF600023786080083B032B20D8DFE803F0022110
:10BF70003166637A5BB93F4A116851B1E06881422A
:10BF800007D113603C4AA1881180E3600EE0012BC9
:10BF90000CD13A4B1B784BB1374BA2881B889A4285
:10BFA00004D1237A062B01D1FFF7B4FF20465DE0D0
:10BFB000637A002BFAD12F4A11680029F6D0E06885
:10BFC0008142F3D12E4913600A68013A0A60DCE726
:10BFD0002C4F3B7873B90125284B1B7833B1264B86
:10BFE000A2881B889A4201D1FFF794FF002DDDD172
:10BFF00007B0F0BD4FF6FF70FFF7DBFB4FF6FF73A6
:10C0000098420546E7D1FFF7D6FBA8420646E2D1A3
:10C0100000251422294601A83D7002F0A5FF0C233B
:10C0200020468DF80430ADF80860ADF80660FFF7E3
:10C030006FFE01A8FFF76CFECEE7124B1A78002ABC
:10C04000B4D00021142201A8197002F08DFF0D2335
:10C050008DF804304FF6FF73ADF80830ADF80630B8
:10C060002046A3680393FFF753FE01A8FFF750FE95
:10C07000BEE700BFC42A0020BC2A0020C02A00203E
:10C08000A82A0020AC2A00202DE9F041304B1B7873
:10C0900088B00646002B56D02E4B2F4C93E8030059
:10C0A000237801AF87E8030043B12C4B1C68984606
:10C0B00054B11124204608B0BDE8F081FFF72AFFF3
:10C0C0002378002BF5D0F0E7254A264D12882B68FF
:10C0D000B2421DD1F3B11422214603A802F044FF5D
:10C0E000082330468DF80C3001F0C8FD0623ADF86A
:10C0F00014309DF81C30ADF80E0064F3000303A863
:10C10000ADF8106006948DF81C30FFF701FED1E702
:10C110005A1C1AD00133114A2B6039463046FFF7BA
:10C12000EDFA04460028C5D00023C8F800302B687B
:10C13000112803F1FF332B60BBD08628BAD0072823
:10C1400018BF0324B6E70824B4E71324B2E700BFFE
:10C15000BE2A00207CF10200C02A0020C42A002050
:10C16000BC2A0020A82A002076DF704713B50446B9
:10C1700069B901A9FFF75AFE43F20202904202D0C8
:10C1800008B1FBF725F99DF804309B070CD400217A
:10C190002046FFF73DFE38B1112805D00D2805D106
:10C1A00013212046FFF7E0FF02B010BD0B28FBD0A3
:10C1B00043F202029042F7D0FBF70AF9F4E7017864
:10C1C00011B94088FFF7D2BF072903D1806808B1B1
:10C1D000FBF7FEB8704700002DE9F041037886B008
:10C1E0000446142B3CD8DFE803F00B3B2D3B3B3BD4
:10C1F0003E3B793B793B3B3B3B3B3B3B3B7DA300A1
:10C200008088FFF741FF862801D0112811D14F49BE
:10C210004F4A0B68A08822F8130001335A4202F0FB
:10C22000070203F0070358BF53420B6000F098F871
:10C2300016E0132803D8474BC340DB0710D4FBF7A5
:10C24000C7F80DE0037A012B0AD884881422002154
:10C2500001A802F089FE01A8ADF80840FFF7BCFF75
:10C2600006B0BDE8F0813C4E3378002BF8D13B4D51
:10C270002B7843BB01A8FCF7FDFC044608B1FBF793
:10C28000A7F8BDF80A30002B14BF012200222A7043
:10C2900017D101AA19461846FFF7DCFD044648B934
:10C2A000BDF80400FFF7CCFD044608B1FBF790F899
:10C2B00001232B70631F012B03D924B12046FBF708
:10C2C00087F8002CCCD1FCF77FFC10B90123337028
:10C2D000C6E748F207629042C2D0B0E71F4B012286
:10C2E0001A70BDE71C4B1A4D00241C701B4B1C70B0
:10C2F000164B1F684FF6FF76E3195A4202F0070209
:10C3000003F0070358BF534235F81380B0450BD0F4
:10C310001422002101A825F8136002F025FE01A8CF
:10C32000ADF80880FFF758FF0134082CE4D197E7F7
:10C33000094B00221A70836848F20D6293423FF461
:10C3400075AFB3F5064F8BD170E700BFCC2A002044
:10C3500046230020C1000800C82A002044230020F2
:10C360007FB51422002101A802F0FEFD062301A8DA
:10C370008DF80430FFF730FF07B05DF804FB70B5AF
:10C38000DDE9045468B161B15BB104FB05F6964286
:10C3900007D835B12CB1C0E90013C0E90254002020
:10C3A00070BD0720FCE738B50C46054608B90020EB
:10C3B00038BD0368002BFAD040680028F7D0FF2969
:10C3C000F5D0BFF35F8FFBF700FC0028EFD0E968E2
:10C3D000286801FB0400EBE738B50D46044690B130
:10C3E000036883B1406870B1FF290CD0BFF35F8F41
:10C3F000FBF7EBFB38B16068BFF35F8F2946BDE800
:10C400003840FBF7D8BB38BD2DE9F04188460646D9
:10C4100018B9FF242046BDE8F0810368002BF8D04E
:10C420004368002BF5D00027FF24B368FDB2AB4270
:10C43000EFD970682946FBF7B0FBBFF35F8F40B9B7
:10C44000FF2C08BF2C462D1B01354545E2D0013796
:10C45000EBE7FF2C07D1FF24F9E721463046FFF731
:10C46000BBFF0134E4B2AC42F7D3F4E77EDF7047A0
:10C470007FDF704786DF704710B50378182B0446BE
:10C4800002D1FEF75BFD207010BD10B50446408858
:10C4900001F0C6FBA0802046BDE8104000F09ABC29
:10C4A00010B586B004461422002101A802F05CFDFC
:10C4B00004230DEB03008DF80430ADF80640FFF7C0
:10C4C000E4FF06B010BD30B587B005460C46142217
:10C4D000002101A802F048FD072301A88DF80430CF
:10C4E000ADF806500394FFF7D0FF07B030BD000051
:10C4F000F0B587B004460F4616460021142201A865
:10C500001D4602F031FD03238DF80430094BADF8D0
:10C51000064019788DF80C7000222046ADF80E60A8
:10C520008DF81050FEF72CFD01A8FFF7AEFF07B005
:10C53000F0BD00BF572300207FB502238DF80430E3
:10C540000388ADF8063043798DF80D1013F0040F11
:10C5500014BF0123022301A88DF80C30FFF795FFCB
:10C5600007B05DF804FB000030B5114B0A1E87B020
:10C570000C4618BF012219780546FEF701FD631E1F
:10C580005A425A410B4B28461978FEF7F9FC1422FF
:10C59000002101A802F0E8FC012301A88DF8043075
:10C5A000ADF806508DF80C40FFF76FFF07B030BDB7
:10C5B000592300205823002073B50192154A0D46D7
:10C5C00011780446FEF7C4FC019B014600B3124AF1
:10C5D00020461178FEF7BCFC002804F580704FF06F
:10C5E000070180B214BF01260226FFF7ADFA019BB6
:10C5F000014628B1052803D02046FFF764FF019BC0
:10C600002A463146204602B0BDE87040FFF770BFB1
:10C610002A46F7E75923002058230020F8B5104F89
:10C62000104E114D114C3846FFF726FF3046FFF7EC
:10C6300023FF2846FFF720FF2046FFF71DFF3B782A
:10C64000182B0BD03378182B08D02B78182B05D04B
:10C650002378182B0CBF03200020F8BD0320FCE733
:10C660005723002059230020582300205623002060
:10C670002DE9F0418AB00D4690460446FEF704FCD1
:10C6800020220646002102A802F06EFC012E08D1ED
:10C69000334B002219782046FEF772FC35B9852706
:10C6A00016E0002EFAD143F2020053E0204601F0DA
:10C6B000B7FA4FF6FF73984211D100272B78DB07AA
:10C6C00021D4284BCDF814800993012E18BF0025E2
:10C6D00002AB2A4639462046FFF7CAFE3AE0012E51
:10C6E000EBD11F4F20463978FEF732FC0028E4D109
:10C6F0002046FFF7D5FE39782046FEF729FC0028B2
:10C70000DBD18527DAE7852FDFD004F580706B4613
:10C710000122072180B2FFF7B7F911281AD0E0B93A
:10C7200001465022019802F01FFC01990B46204659
:10C7300003F8346B029301F1180306934B1C079323
:10C740001131084BCDF81480099301F07BFA0028D1
:10C75000BBD008200AB0BDE8F0810320FAE700BF93
:10C7600056230020D02A002038B505460C46FEF797
:10C770008BFB012808D154B121462846FFF776FEED
:10C78000042808BF112038BD43F20200FBE7204611
:10C79000F9E700002DE9F0470388113B8AB0044611
:10C7A000092B74D8DFE813F00A0073001F0048005B
:10C7B0007300730073007300A0003001037A848853
:10C7C0003D2BA74B2046197841F23D0518BF4FF489
:10C7D0008855FEF7BDFB002859D000222946204687
:10C7E000FFF7EAFE53E08088FEF74EFB0128024681
:10C7F0000FD1257A9A4BA0881978019005F0010590
:10C80000C5F10205EDB2FEF7BBFB01982946FFF723
:10C81000ABFE34F8045F142200210DEB020002F09D
:10C82000A3FB043405238DF81430ADF8165007949B
:10C8300005A8FFF72AFE2AE000F11006304601F0B5
:10C8400060FA4FF6FF7398420546A08822D101F0A6
:10C85000E7F90546824BA088197801900122FEF77E
:10C860008FFB01980021FFF77FFE4FF6FF739D427B
:10C8700014D1002500232946A0881A46FFF7FAFDA7
:10C880000828014603D010B3A088FFF71CFE0AB0A9
:10C89000BDE8F087294601F055FADBE705AA072134
:10C8A0002846FFF7EDF80028E3D1A37ED907E0D5AD
:10C8B000069D95F84430DA0701D53435DAE731467C
:10C8C00005F1460001F009FA0028F6D1D1E7A37E70
:10C8D000DB07DCD5002DDAD1A0882B4641F2060219
:10C8E0002946FFF705FED2E75D4B90F808801978DE
:10C8F0008588B8F1000F79D1061D42462846FEF71B
:10C900003FFB617A11F0040103D13046FFF714FEBA
:10C91000BDE705F580791FFA89F903AB01220721EC
:10C920004846FFF7B1F8074628B101462846FFF709
:10C93000CAFD4146E9E7284601F072F94FF6FF7358
:10C940009842044682462FD10146049801F04AF9E4
:10C9500050450446804678D0DFF80CA101462846B1
:10C9600001F0F0F99AF800102846FEF7F1FA804637
:10C97000D0B92846FFF794FD9AF800102846FEF734
:10C98000E7FA01460028C0D0072122464846FFF7B3
:10C9900004F9014650B90121B7E72146284601F0C4
:10C9A000D1F94FF00108EFE7B846EDE786280ED140
:10C9B000142200210DEB020002F0D6FA062305A88E
:10C9C0008DF81430ADF81650FFF75FFDE3E7284609
:10C9D000FFF779FD00213046FFF7AEFDB8F1000FFB
:10C9E0003FF455AF204601F0B7F950E7427A2846A8
:10C9F00002F003020192FEF7ABFA019A00283FF41D
:10CA000046AF41462846EBE6164B80881978FEF77C
:10CA10009FFA054600287FF43AAFA088FEF758FA3F
:10CA20000146A08819B9012341F2060259E70C4BCF
:10CA30002A461978FEF7A4FA02238DF81430A38849
:10CA4000ADF81630ADF81C50F2E6FEF7A1FE4045F9
:10CA50000446A2D104212846FFF735FD394654E7A4
:10CA600057230020592300205623002058B3027872
:10CA700002F08203802B25D0C2F30213042B21D8AD
:10CA800002F0F203322B1DD041788378994219D8F5
:10CA9000062917D9102B15D8C17811F0040311D12C
:10CAA000007943070ED4084301070BD4D30700F0E5
:10CAB000030003D4B0FA80F040097047003818BF73
:10CAC000012070470020704770B515460E461422AD
:10CAD0000021044602F048FA284601F0A1F8267029
